:100000000C9434000C943E000C943E000C943E0082
:100010000C943E000C943E000C943E000C943E0068
:100020000C943E000C943E000C943E000C943E0058
:100030000C943E000C943E000C943E000C943E0048
:100040000C943E000C943E000C943E000C943E0038
:100050000C943E000C943E000C943E000C943E0028
:100060000C943E000C943E0011241FBECFEFD8E04C
:10007000DEBFCDBF0E9440000C9499000C9400009C
:10008000CF93DF9300D01F92CDB7DEB71A821982CB
:1000900087E290E0FC01808187E290E02FEFFC0195
:1000A000208381EC90E021EC30E0F901208128618F
:1000B000FC01208382EC90E022EC30E0F901208109
:1000C0002660FC01208385EC90E0FC01108284EC2A
:1000D00090E027E6FC01208388E290E0FC0110829A
:1000E000000080EC90E0FC0180818823D4F786EC4E
:1000F00090E0FC0180818B83000080EC90E0FC01AB
:100100008081882F90E080729927892BB1F38B81B1
:100110008F3F49F488E290E028E230E0F901208145
:100120002095FC01208386EC90E02B81FC0120834C
:06013000D7CFF894FFCFC9
:00000001FF
