:100000000C9443000C944D000C944D000C944D0046
:100010000C944D000C944D000C944D000C944D002C
:100020000C944D000C944D000C944D000C944D001C
:100030000C944D000C944D000C944D000C944D000C
:100040000C944D000C944D000C944D000C944D00FC
:100050000C944D000C944D000C944D000C944D00EC
:100060000C944D000C944D0005A84CCDB2D44EB963
:100070003836A9020C50B9918688083CA6AAAA2A4B
:10008000BE000000803F11241FBECFEFD8E0DEBFCE
:10009000CDBF0E944F000C945C020C94000001D074
:1000A000FECF8FEF84B9C0E0D0E0E12CF12C00E06E
:1000B00010E0812C912CA12CB12CC12CD12C0EC084
:1000C00028ED3FE049EC5CE36E2D7F2D802F912FD2
:1000D0000E949000E62EF72E082F192F6E2D7F2DEF
:1000E000802F912F0E94D90120E030E04EEF52E4A2
:1000F0000E94760120E030E04EEF52E40E94900032
:100100000E94F40065B92196CF3FD105C9F2C4F22F
:10011000C82DD92DEA2CFB2C0C2D1D2DDFCF5058CE
:10012000BB27AA270ED0A8C099D030F09ED020F0CF
:1001300031F49F3F11F41EF48EC00EF4E095E7FBFE
:1001400084C0E92FAAD080F3BA1762077307840727
:10015000950718F071F49EF5C2C00EF4E0950B2ED1
:10016000BA2FA02D0B01B90190010C01CA01A00109
:100170001124FF27591B99F0593F50F4503E68F164
:100180001A16F040A22F232F342F4427585FF3CFA5
:10019000469537952795A795F0405395C9F77EF476
:1001A0001F16BA0B620B730B840BBAF09150A1F0BF
:1001B000FF0FBB1F661F771F881FC2F70EC0BA0F45
:1001C000621F731F841F48F4879577956795B795CD
:1001D000F7959E3F08F0B3CF9395880F08F09927C5
:1001E000EE0F97958795089504D06894B11178C063
:1001F00008955BD088F09F5790F0B92F9927B75199
:10020000A0F0D1F0660F771F881F991F1AF0BA95DA
:10021000C9F712C0B13081F062D0B1E008955FC07B
:10022000672F782F8827B85F39F0B93FCCF38695D0
:1002300077956795B395D9F73EF49095809570952D
:1002400061957F4F8F4F9F4F089597F99F6780E883
:1002500070E060E008959FEF80EC089500240A9418
:100260001616170618060906089500240A94121691
:100270001306140605060895092E0394000C11F4C4
:10028000882352F0BB0F40F4BF2B11F460FF04C071
:100290006F5F7F4F8F4F9F4F089557FD9058440FCA
:1002A000551F59F05F3F71F04795880F97FB991FD5
:1002B00061F09F3F79F08795089512161306140692
:1002C000551FF2CF4695F1DF08C01616170618061F
:1002D000991FF1CF86957105610508940895E894FA
:1002E000BB2766277727CB0197F908950BD0C4CF9A
:1002F000B5DF28F0BADF18F0952309F0A6CFABCF11
:100300001124EECFCADFA0F3959FD1F3950F50E0F3
:10031000551F629FF001729FBB27F00DB11D639FB7
:10032000AA27F00DB11DAA1F649F6627B00DA11D5D
:10033000661F829F2227B00DA11D621F739FB00D03
:10034000A11D621F839FA00D611D221F749F332773
:10035000A00D611D231F849F600D211D822F762F0C
:100360006A2F11249F5750408AF0E1F088234AF009
:10037000EE0FFF1FBB1F661F771F881F9150504055
:10038000A9F79E3F510570F060CFAACF5F3FECF315
:10039000983EDCF3869577956795B795F795E79541
:1003A0009F5FC1F7FE2B880F911D9695879597F952
:1003B00008959F9305D00F9007FCEE5F28C04BCFA8
:1003C00074DFE8F3E894E0E0BB279F57F0F02AEDF4
:1003D0003FE049EC06C0EE0FBB0F661F771F881F7A
:1003E00028F0B23A62077307840728F0B25A620B0A
:1003F000730B840BE3959A9572F7803830F49A95D5
:10040000BB0F661F771F881FD2F7904813C0EF936A
:10041000E0FF06C0A2EA2AED3FE049EC5FEB91DE87
:100420002BDF0F90039401FC9058E8E6F0E00EC03B
:100430009F3F31F0915020F4879577956795B79558
:10044000880F911D9695879597F908959F938F939F
:100450007F936F93FF93EF939B01AC0147DFEF9185
:10046000FF9105D02F913F914F915F913FCFDF9347
:10047000CF931F930F93FF92EF92DF927B018C013A
:10048000689405C0DA2EEF013DDFFE01E894A591E6
:100490002591359145915591AEF3EF0152DEFE0164
:1004A0009701A801DA9479F7DF90EF90FF900F9110
:0C04B0001F91CF91DF910895F894FFCFC9
:00000001FF
