:100000000C9434000C9449000C9449000C94490061
:100010000C9449000C9449000C9449000C9449003C
:100020000C9449000C9449000C9449000C9449002C
:100030000C9449000C9449000C9449000C9449001C
:100040000C9449000C9449000C9449000C9449000C
:100050000C9449000C9449000C9449000C944900FC
:100060000C9449000C94490011241FBECFEFD8E036
:10007000DEBFCDBF11E0A0E0B1E0E4E8FAE202C0EB
:1000800005900D92AC38B107D9F70E944B000C9443
:1000900040150C940000CF93DF93CDB7DEB72B97BC
:1000A0000FB6F894DEBF0FBECDBF83E00E94BE0E38
:1000B00060E081E00E94DD0080E491E00E949B12FC
:1000C00061E080E00E9471138AE491E00E949B123B
:1000D000198236C061E089E00E9471138981882FFE
:1000E00090E063E070E00E94E41261E08CE00E9426
:1000F000711383E591E00E949B121B821A828A8110
:100100009B810197F1F79B838A831D821C828C81DE
:100110009D810197F1F79D838C831F821E828E81C2
:100120009F810197F1F79F838E83198618868885B2
:1001300099850197F1F79987888789818F5F8983EE
:100140008981833608F4C6CF60E081E00E94DD003B
:1001500085E591E00E949B1261E080E00E947113AE
:1001600081E691E00E949B1219820BC01B861A86C1
:100170008A859B850197F1F79B878A8789818F5FA5
:1001800089838981843690F360E081E00E94DD00FC
:1001900082E791E00E949B1261E080E00E9471136F
:1001A0008EE791E00E949B122B960FB6F894DEBF6B
:1001B0000FBECDBFDF91CF9108950F931F93CF93C3
:1001C000DF93CDB7DEB7CD57D1090FB6F894DEBFB8
:1001D0000FBECDBF9E0124583F4FF9018083CE0151
:1001E00083589F4FFC016083CE0184589F4FFC01D0
:1001F000808182958F708983CE0184589F4FFC0146
:1002000080818F708A83CE0183589F4FFC0180814B
:10021000882351F48BE290E02BE230E0F901208159
:10022000277FFC01208309C08BE290E02BE230E0C5
:10023000F90120812860FC01208380E090E0A0E0AB
:10024000BFE38C839D83AE83BF832BEA3AEA4AEAFD
:100250005EE36C817D818E819F810E94DD14DC01D3
:10026000CB0188879987AA87BB8720E030E040E8E8
:100270005FE3688579858A859B850E94CC138823F6
:100280001CF481E08C8791C020E030E04FE753E41C
:10029000688579858A859B850E94D91418160CF08B
:1002A0007BC020E030E04AE754E46C817D818E81A0
:1002B0009F810E94D013DC01CB018D879E87AF8781
:1002C000B88B20E030E04AE753E46D857E858F856A
:1002D00098890E94DD14DC01CB01898B9A8BAB8B52
:1002E000BC8B20E030E040E85FE369897A898B8944
:1002F0009C890E94CC1388232CF481E090E09E8B93
:100300008D8B3FC020E03FEF4FE757E469897A8942
:100310008B899C890E94D91418164CF520E030E096
:1003200040E251E46D857E858F8598890E94DD14B9
:10033000DC01CB01BC01CD010E943814DC01CB01F2
:100340009E8B8D8B0FC089E190E0988F8F8B8F896A
:10035000988D0197F1F7988F8F8B8D899E890197E2
:100360009E8B8D8B8D899E89892B69F724C0698925
:100370007A898B899C890E943814DC01CB019E8B81
:100380008D8B8D899E899A8F898F898D9A8D019702
:10039000F1F79A8F898F0FC0688579858A859B854B
:1003A0000E943814DC01CB018C878C858B8F8B8D60
:1003B0008A95F1F78B8F85E290E025E230E0F90134
:1003C00020812061FC01208385E290E0FC01808196
:1003D000982F907F8981892B8B8385E290E02B81F8
:1003E000FC01208380E090E0A0E8BFE38C8F9D8F2C
:1003F000AE8FBF8F2BEA3AEA4AEA5EE36C8D7D8DC1
:100400008E8D9F8D0E94DD14DC01CB0188A399A302
:10041000AAA3BBA320E030E040E85FE368A179A194
:100420008AA19BA10E94CC1388231CF481E08CA399
:1004300091C020E030E04FE753E468A179A18AA1A0
:100440009BA10E94D91418160CF07BC020E030E06C
:100450004AE754E46C8D7D8D8E8D9F8D0E94D01364
:10046000DC01CB018DA39EA3AFA3B8A720E030E0B1
:100470004AE753E46DA17EA18FA198A50E94DD14E7
:10048000DC01CB0189A79AA7ABA7BCA720E030E08D
:1004900040E85FE369A57AA58BA59CA50E94CC13D3
:1004A00088232CF481E090E09EA78DA73FC020E038
:1004B0003FEF4FE757E469A57AA58BA59CA50E945D
:1004C000D91418164CF520E030E040E251E46DA15B
:1004D0007EA18FA198A50E94DD14DC01CB01BC0197
:1004E000CD010E943814DC01CB019EA78DA70FC05F
:1004F00089E190E098AB8FA78FA598A90197F1F7B4
:1005000098AB8FA78DA59EA501979EA78DA78DA5BA
:100510009EA5892B69F724C069A57AA58BA59CA502
:100520000E943814DC01CB019EA78DA78DA59EA546
:100530009AAB89AB89A99AA90197F1F79AAB89ABD4
:100540000FC068A179A18AA19BA10E943814DC0187
:10055000CB018CA38CA18BAB8BA98A95F1F78BABCC
:1005600085E290E025E230E0F90120812F7EFC0158
:10057000208380E090E0A0E8BFE38CAB9DABAEAB06
:10058000BFAB2BEA3AEA4AEA5EE36CA97DA98EA9E1
:100590009FA90E94DD14DC01CB0188AF99AFAAAFFF
:1005A000BBAF20E030E040E85FE368AD79AD8AADF5
:1005B0009BAD0E94CC1388231CF481E08CAFE1C07A
:1005C00020E030E04FE753E468AD79AD8AAD9BADF4
:1005D0000E94D91418160CF0CBC020E030E04AE796
:1005E00054E46CA97DA98EA99FA90E94D013DC01B7
:1005F000CB019E01235C3F4FF90180839183A2834D
:10060000B3838E010F5B1F4F20E030E04AE753E4D5
:10061000CE01CD96FC0160817181828193810E941F
:10062000DD14DC01CB01F80180839183A283B383C5
:10063000CE018F5B9F4F20E030E040E85FE3FC019C
:1006400060817181828193810E94CC1388234CF454
:10065000CE018B5B9F4F21E030E0FC013183208392
:100660006CC0CE018F5B9F4F20E03FEF4FE757E418
:10067000FC0160817181828193810E94D9141816D6
:100680000CF049C020E030E040E251E4CE01CD96CC
:10069000FC0160817181828193810E94DD14DC0103
:1006A000CB018E010B5B1F4FBC01CD010E943814A2
:1006B000DC01CB01F8019183808324C0CE01895BEA
:1006C0009F4F29E130E0FC0131832083CE01895B1B
:1006D0009F4FFC01808191810197F1F79E01295B79
:1006E0003F4FF90191838083CE018B5B9F4F9E0129
:1006F0002B5B3F4FF9012081318121503109FC01F1
:1007000031832083CE018B5B9F4FFC0180819181DF
:10071000892BA1F649C08E010B5B1F4FCE018F5B69
:100720009F4FFC0160817181828193810E94381406
:10073000DC01CB01F80191838083CE01875B9F4F61
:100740009E012B5B3F4FF90120813181FC013183F8
:100750002083CE01875B9F4FFC01808191810197AF
:10076000F1F79E01275B3F4FF901918380831CC005
:1007700068AD79AD8AAD9BAD0E943814DC01CB0128
:100780008CAFCE01855B9F4F2CADFC012083CE0149
:10079000855B9F4FFC018081282F2A95F1F7CE01C0
:1007A000855B9F4FFC01208385E290E025E230E0ED
:1007B000F90120812061FC01208385E290E0FC01A9
:1007C0008081982F907F8A81892B8B8385E290E0AE
:1007D0002B81FC0120839E01245B3F4F80E090E051
:1007E000A0E8BFE3F90180839183A283B3838E01E4
:1007F000005B1F4FCE01845B9F4F2BEA3AEA4AEA27
:100800005EE3FC0160817181828193810E94DD142D
:10081000DC01CB01F80180839183A283B383CE01F5
:10082000805B9F4F20E030E040E85FE3FC016081A7
:100830007181828193810E94CC1388233CF4CE0184
:100840008C5A9F4F21E0FC012083F3C0CE01805BD6
:100850009F4F20E030E04FE753E4FC01608171815D
:10086000828193810E94D91418160CF0D1C0CE0158
:10087000845B9F4F20E030E04AE754E4FC01608154
:100880007181828193810E94D013DC01CB019E0192
:100890002B5A3F4FF90180839183A283B3838E014A
:1008A000075A1F4FCE018B5A9F4F20E030E04AE796
:1008B00053E4FC0160817181828193810E94DD1487
:1008C000DC01CB01F80180839183A283B383CE0145
:1008D000875A9F4F20E030E040E85FE3FC016081F1
:1008E0007181828193810E94CC1388234CF4CE01C4
:1008F000835A9F4F21E030E0FC01318320836DC09B
:10090000CE01875A9F4F20E03FEF4FE757E4FC01AD
:1009100060817181828193810E94D91418160CF034
:100920004AC0CE018B5A9F4F20E030E040E251E4B4
:10093000FC0160817181828193810E94DD14DC0160
:10094000CB018E01035A1F4FBC01CD010E94381408
:10095000DC01CB01F8019183808324C0CE01815A50
:100960009F4F29E130E0FC0131832083CE01815A81
:100970009F4FFC01808191810197F1F79E01215ADF
:100980003F4FF90191838083CE01835A9F4F9E018F
:10099000235A3F4FF9012081318121503109FC0157
:1009A00031832083CE01835A9F4FFC018081918146
:1009B000892BA1F655C08E01035A1F4FCE01875ACD
:1009C0009F4FFC0160817181828193810E94381464
:1009D000DC01CB01F80191838083CE018F599F4FB9
:1009E0009E01235A3F4FF90120813181FC0131835F
:1009F0002083CE018F599F4FFC0180819181019707
:100A0000F1F79E012F593F4FF9019183808328C050
:100A10008E010C5A1F4FCE01805B9F4FFC016081FD
:100A20007181828193810E943814DC01CB01F8012D
:100A30008083CE018D599F4F9E012C5A3F4FF90163
:100A40002081FC012083CE018D599F4FFC018081C4
:100A5000282F2A95F1F7CE018D599F4FFC01208355
:100A600085E290E025E230E0F90120812F7EFC0153
:100A700020839E012C593F4F80E090E0A0E8BFE327
:100A8000F90180839183A283B3838E0108591F4F9C
:100A9000CE018C599F4F2BEA3AEA4AEA5EE3FC0109
:100AA00060817181828193810E94DD14DC01CB0120
:100AB000F80180839183A283B383CE0188599F4F2D
:100AC00020E030E040E85FE3FC01608171818281D9
:100AD00093810E94CC1388233CF4CE0184599F4F0C
:100AE00021E0FC012083F3C0CE0188599F4F20E014
:100AF00030E04FE753E4FC01608171818281938192
:100B00000E94D91418160CF0D1C0CE018C599F4FF9
:100B100020E030E04AE754E4FC0160817181828189
:100B200093810E94D013DC01CB019E0123593F4FDA
:100B3000F90180839183A283B3838E010F581F4FE5
:100B4000CE0183599F4F20E030E04AE753E4FC0197
:100B500060817181828193810E94DD14DC01CB016F
:100B6000F80180839183A283B383CE018F589F4F76
:100B700020E030E040E85FE3FC0160817181828128
:100B800093810E94CC1388234CF4CE018B589F4F45
:100B900021E030E0FC01318320836DC0CE018F580D
:100BA0009F4F20E03FEF4FE757E4FC0160817181E8
:100BB000828193810E94D91418160CF04AC0CE018C
:100BC00083599F4F20E030E040E251E4FC01608116
:100BD0007181828193810E94DD14DC01CB018E0141
:100BE0000B581F4FBC01CD010E943814DC01CB0112
:100BF000F8019183808324C0CE0189589F4F29E159
:100C000030E0FC0131832083CE0189589F4FFC01E5
:100C1000808191810197F1F79E0129583F4FF90199
:100C200091838083CE018B589F4F9E012B583F4F5D
:100C3000F9012081318121503109FC013183208368
:100C4000CE018B589F4FFC0180819181892BA1F6A9
:100C500055C08E010B581F4FCE018F589F4FFC017E
:100C600060817181828193810E943814DC01CB0103
:100C7000F80191838083CE0187589F4F9E012B58A6
:100C80003F4FF90120813181FC0131832083CE0166
:100C900087589F4FFC01808191810197F1F79E0158
:100CA00027583F4FF9019183808328C08E01045952
:100CB0001F4FCE0188599F4FFC0160817181828155
:100CC00093810E943814DC01CB01F8018083CE01AE
:100CD00085589F4F9E0124593F4FF9012081FC0107
:100CE0002083CE0185589F4FFC018081282F2A95B3
:100CF000F1F7CE0185589F4FFC0120830E948C069E
:100D0000C358DF4F0FB6F894DEBF0FBECDBFDF91E3
:100D1000CF911F910F9108950F931F93CF93DF935E
:100D2000CDB7DEB7CB5AD1090FB6F894DEBF0FBEF0
:100D3000CDBF198284E290E024E230E0F901208105
:100D4000207FFC0120838BE290E02BE230E0F90170
:100D500020812064FC0120838BE290E02BE230E0D4
:100D6000F9012081277FFC01208380E090E0A0E052
:100D7000BFE38C839D83AE83BF832BEA3AEA4AEAC2
:100D80005EE36C817D818E819F810E94DD14DC0198
:100D9000CB0188879987AA87BB8720E030E040E8AD
:100DA0005FE3688579858A859B850E94CC138823BB
:100DB0001CF481E08C8791C020E030E04FE753E4E1
:100DC000688579858A859B850E94D91418160CF050
:100DD0007BC020E030E04AE754E46C817D818E8165
:100DE0009F810E94D013DC01CB018D879E87AF8746
:100DF000B88B20E030E04AE753E46D857E858F852F
:100E000098890E94DD14DC01CB01898B9A8BAB8B16
:100E1000BC8B20E030E040E85FE369897A898B8908
:100E20009C890E94CC1388232CF481E090E09E8B57
:100E30008D8B3FC020E03FEF4FE757E469897A8907
:100E40008B899C890E94D91418164CF520E030E05B
:100E500040E251E46D857E858F8598890E94DD147E
:100E6000DC01CB01BC01CD010E943814DC01CB01B7
:100E70009E8B8D8B0FC089E190E0988F8F8B8F892F
:100E8000988D0197F1F7988F8F8B8D899E890197A7
:100E90009E8B8D8B8D899E89892B69F724C06989EA
:100EA0007A898B899C890E943814DC01CB019E8B46
:100EB0008D8B8D899E899A8F898F898D9A8D0197C7
:100EC000F1F79A8F898F0FC0688579858A859B8510
:100ED0000E943814DC01CB018C878C858B8F8B8D25
:100EE0008A95F1F78B8F85E290E025E230E0F901F9
:100EF00020812061FC01208380E090E0A0E0BFE33E
:100F00008C8F9D8FAE8FBF8F2BEA3AEA4AEA5EE361
:100F10006C8D7D8D8E8D9F8D0E94DD14DC01CB014B
:100F200088A399A3AAA3BBA320E030E040E85FE335
:100F300068A179A18AA19BA10E94CC1388231CF4EB
:100F400081E08CA391C020E030E04FE753E468A13A
:100F500079A18AA19BA10E94D91418160CF07BC01C
:100F600020E030E04AE754E46C8D7D8D8E8D9F8DBE
:100F70000E94D013DC01CB018DA39EA3AFA3B8A721
:100F800020E030E04AE753E46DA17EA18FA198A54F
:100F90000E94DD14DC01CB0189A79AA7ABA7BCA7EF
:100FA00020E030E040E85FE369A57AA58BA59CA529
:100FB0000E94CC1388232CF481E090E09EA78DA79B
:100FC0003FC020E03FEF4FE757E469A57AA58BA526
:100FD0009CA50E94D91418164CF520E030E040E2A0
:100FE00051E46DA17EA18FA198A50E94DD14DC01C2
:100FF000CB01BC01CD010E943814DC01CB019EA7BE
:101000008DA70FC089E190E098AB8FA78FA598A915
:101010000197F1F798AB8FA78DA59EA501979EA785
:101020008DA78DA59EA5892B69F724C069A57AA5F2
:101030008BA59CA50E943814DC01CB019EA78DA72F
:101040008DA59EA59AAB89AB89A99AA90197F1F7BD
:101050009AAB89AB0FC068A179A18AA19BA10E941C
:101060003814DC01CB018CA38CA18BAB8BA98A95A6
:10107000F1F78BAB83E290E0FC0180818983898169
:101080008295807F898380E090E0A0E0BFE38CAB15
:101090009DABAEABBFAB2BEA3AEA4AEA5EE36CA982
:1010A0007DA98EA99FA90E94DD14DC01CB0188AF28
:1010B00099AFAAAFBBAF20E030E040E85FE368AD96
:1010C00079AD8AAD9BAD0E94CC1388231CF481E0DE
:1010D0008CAFE1C020E030E04FE753E468AD79AD7C
:1010E0008AAD9BAD0E94D91418160CF0CBC020E03D
:1010F00030E04AE754E46CA97DA98EA99FA90E941B
:10110000D013DC01CB019E01235C3F4FF9018083AA
:101110009183A283B3838E010F5B1F4F20E030E0E9
:101120004AE753E4CE01CD96FC0160817181828152
:1011300093810E94DD14DC01CB01F801808391834F
:10114000A283B383CE018F5B9F4F20E030E040E865
:101150005FE3FC0160817181828193810E94CC13E5
:1011600088234CF4CE018B5B9F4F21E030E0FC01E3
:10117000318320836CC0CE018F5B9F4F20E03FEF17
:101180004FE757E4FC0160817181828193810E9465
:10119000D91418160CF049C020E030E040E251E4C8
:1011A000CE01CD96FC0160817181828193810E9484
:1011B000DD14DC01CB018E010B5B1F4FBC01CD01A7
:1011C0000E943814DC01CB01F8019183808324C094
:1011D000CE01895B9F4F29E130E0FC013183208300
:1011E000CE01895B9F4FFC01808191810197F1F7CE
:1011F0009E01295B3F4FF90191838083CE018B5B78
:101200009F4F9E012B5B3F4FF9012081318121507F
:101210003109FC0131832083CE018B5B9F4FFC01A0
:1012200080819181892BA1F649C08E010B5B1F4FF4
:10123000CE018F5B9F4FFC01608171818281938120
:101240000E943814DC01CB01F80191838083CE0128
:10125000875B9F4F9E012B5B3F4FF90120813181BE
:10126000FC0131832083CE01875B9F4FFC0180818D
:1012700091810197F1F79E01275B3F4FF90191831F
:1012800080831CC068AD79AD8AAD9BAD0E943814D7
:10129000DC01CB018CAFCE01855B9F4F2CADFC01F7
:1012A0002083CE01855B9F4FFC018081282F2A95EA
:1012B000F1F7CE01855B9F4FFC01208385E290E032
:1012C00025E230E0F90120812F7EFC0120839E0180
:1012D000245B3F4F80E090E0A0E8BFE3F90180830A
:1012E0009183A283B3838E01005B1F4FCE01845B89
:1012F0009F4F2BEA3AEA4AEA5EE3FC016081718182
:10130000828193810E94DD14DC01CB01F80180838E
:101310009183A283B383CE01805B9F4F20E030E0B6
:1013200040E85FE3FC0160817181828193810E94CA
:10133000CC1388233CF4CE018C5A9F4F21E0FC0152
:101340002083F3C0CE01805B9F4F20E030E04FE769
:1013500053E4FC0160817181828193810E94D914E0
:1013600018160CF0D1C0CE01845B9F4F20E030E016
:101370004AE754E4FC0160817181828193810E947B
:10138000D013DC01CB019E012B5A3F4FF901808322
:101390009183A283B3838E01075A1F4FCE018B5ACC
:1013A0009F4F20E030E04AE753E4FC016081718107
:1013B000828193810E94DD14DC01CB01F8018083DE
:1013C0009183A283B383CE01875A9F4F20E030E000
:1013D00040E85FE3FC0160817181828193810E941A
:1013E000CC1388234CF4CE01835A9F4F21E030E088
:1013F000FC01318320836DC0CE01875A9F4F20E0CE
:101400003FEF4FE757E4FC01608171818281938156
:101410000E94D91418160CF04AC0CE018B5A9F4F67
:1014200020E030E040E251E4FC0160817181828182
:1014300093810E94DD14DC01CB018E01035A1F4F02
:10144000BC01CD010E943814DC01CB01F80191836D
:10145000808324C0CE01815A9F4F29E130E0FC01F6
:1014600031832083CE01815A9F4FFC01808191817D
:101470000197F1F79E01215A3F4FF9019183808333
:10148000CE01835A9F4F9E01235A3F4FF90120817D
:10149000318121503109FC0131832083CE01835AEF
:1014A0009F4FFC0180819181892BA1F655C08E014F
:1014B000035A1F4FCE01875A9F4FFC0160817181F3
:1014C000828193810E943814DC01CB01F801918361
:1014D0008083CE018F599F4F9E01235A3F4FF901C0
:1014E00020813181FC0131832083CE018F599F4FB0
:1014F000FC01808191810197F1F79E012F593F4FA7
:10150000F9019183808328C08E010C5A1F4FCE01B0
:10151000805B9F4FFC0160817181828193810E9479
:101520003814DC01CB01F8018083CE018D599F4F27
:101530009E012C5A3F4FF9012081FC012083CE01EE
:101540008D599F4FFC018081282F2A95F1F7CE01FC
:101550008D599F4FFC01208385E290E025E230E029
:10156000F90120812061FC0120839E012C593F4F0D
:1015700080E090E0A0E0BFE3F90180839183A28343
:10158000B3838E0108591F4FCE018C599F4F2BEA10
:101590003AEA4AEA5EE3FC016081718182819381CB
:1015A0000E94DD14DC01CB01F80180839183A283CA
:1015B000B383CE0188599F4F20E030E040E85FE3DD
:1015C000FC0160817181828193810E94CC13882308
:1015D0003CF4CE0184599F4F21E0FC012083F3C0ED
:1015E000CE0188599F4F20E030E04FE753E4FC01E3
:1015F00060817181828193810E94D91418160CF048
:10160000D1C0CE018C599F4F20E030E04AE754E42E
:10161000FC0160817181828193810E94D013DC0181
:10162000CB019E0123593F4FF90180839183A2830F
:10163000B3838E010F581F4FCE0183599F4F20E077
:1016400030E04AE753E4FC0160817181828193813B
:101650000E94DD14DC01CB01F80180839183A28319
:10166000B383CE018F589F4F20E030E040E85FE326
:10167000FC0160817181828193810E94CC13882357
:101680004CF4CE018B589F4F21E030E0FC013183B8
:1016900020836DC0CE018F589F4F20E03FEF4FE772
:1016A00057E4FC0160817181828193810E94D91489
:1016B00018160CF04AC0CE0183599F4F20E030E04D
:1016C00040E251E4FC0160817181828193810E943A
:1016D000DD14DC01CB018E010B581F4FBC01CD0185
:1016E0000E943814DC01CB01F8019183808324C06F
:1016F000CE0189589F4F29E130E0FC0131832083DE
:10170000CE0189589F4FFC01808191810197F1F7AB
:101710009E0129583F4FF90191838083CE018B5858
:101720009F4F9E012B583F4FF9012081318121505D
:101730003109FC0131832083CE018B589F4FFC017E
:1017400080819181892BA1F655C08E010B581F4FC6
:10175000CE018F589F4FFC016081718182819381FE
:101760000E943814DC01CB01F80191838083CE0103
:1017700087589F4F9E012B583F4FF901208131819F
:10178000FC0131832083CE0187589F4FFC0180816B
:1017900091810197F1F79E0127583F4FF9019183FD
:1017A000808328C08E0104591F4FCE0188599F4F56
:1017B000FC0160817181828193810E943814DC0177
:1017C000CB01F8018083CE0185589F4F9E0124599B
:1017D0003F4FF9012081FC012083CE0185589F4FA6
:1017E000FC018081282F2A95F1F7CE0185589F4F63
:1017F000FC01208383E290E0FC0180818A838A815E
:101800008F708A8399818A81892B898389818078E5
:101810008B839E0124583F4F80E090E0A0E0BFE31F
:10182000F90180839183A283B3838E0100581F4FF7
:10183000CE0184589F4F2BEA3AEA4AEA5EE3FC0164
:1018400060817181828193810E94DD14DC01CB0172
:10185000F80180839183A283B383CE0180589F4F88
:1018600020E030E040E85FE3FC016081718182812B
:1018700093810E94CC1388233CF4CE018C579F4F58
:1018800021E0FC012083F3C0CE0180589F4F20E06F
:1018900030E04FE753E4FC016081718182819381E4
:1018A0000E94D91418160CF0D1C0CE0184589F4F55
:1018B00020E030E04AE754E4FC01608171818281DC
:1018C00093810E94D013DC01CB019E012B573F4F27
:1018D000F90180839183A283B3838E0107571F4F41
:1018E000CE018B579F4F20E030E04AE753E4FC01E4
:1018F00060817181828193810E94DD14DC01CB01C2
:10190000F80180839183A283B383CE0187579F4FD1
:1019100020E030E040E85FE3FC016081718182817A
:1019200093810E94CC1388234CF4CE0183579F4FA0
:1019300021E030E0FC01318320836DC0CE01875768
:101940009F4F20E03FEF4FE757E4FC01608171813A
:10195000828193810E94D91418160CF04AC0CE01DE
:101960008B579F4F20E030E040E251E4FC01608162
:101970007181828193810E94DD14DC01CB018E0193
:1019800003571F4FBC01CD010E943814DC01CB016D
:10199000F8019183808324C0CE0181579F4F29E1B4
:1019A00030E0FC0131832083CE0181579F4FFC0141
:1019B000808191810197F1F79E0121573F4FF901F5
:1019C00091838083CE0183579F4F9E0123573F4FC2
:1019D000F9012081318121503109FC0131832083BB
:1019E000CE0183579F4FFC0180819181892BA1F605
:1019F00055C08E0103571F4FCE0187579F4FFC01E3
:101A000060817181828193810E943814DC01CB0155
:101A1000F80191838083CE018F569F4F9E012357FB
:101A20003F4FF90120813181FC0131832083CE01B8
:101A30008F569F4FFC01808191810197F1F79E01A4
:101A40002F563F4FF9019183808328C08E010C5798
:101A50001F4FCE0180589F4FFC01608171818281B0
:101A600093810E943814DC01CB01F8018083CE0100
:101A70008D569F4F9E012C573F4FF9012081FC014D
:101A80002083CE018D569F4FFC018081282F2A95FF
:101A9000F1F7CE018D569F4FFC01208385E290E047
:101AA00025E230E0F90120812F7EFC0120839E0198
:101AB0002C563F4F80E090E0A0E8BFE3F90180831F
:101AC0009183A283B3838E0108561F4FCE018C569B
:101AD0009F4F2BEA3AEA4AEA5EE3FC01608171819A
:101AE000828193810E94DD14DC01CB01F8018083A7
:101AF0009183A283B383CE0188569F4F20E030E0CC
:101B000040E85FE3FC0160817181828193810E94E2
:101B1000CC1388233CF4CE0184569F4F21E0FC0176
:101B20002083F3C0CE0188569F4F20E030E04FE77E
:101B300053E4FC0160817181828193810E94D914F8
:101B400018160CF0D1C0CE018C569F4F20E030E02B
:101B50004AE754E4FC0160817181828193810E9493
:101B6000D013DC01CB019E0123563F4FF901808346
:101B70009183A283B3838E010F551F4FCE018356ED
:101B80009F4F20E030E04AE753E4FC01608171811F
:101B9000828193810E94DD14DC01CB01F8018083F6
:101BA0009183A283B383CE018F559F4F20E030E015
:101BB00040E85FE3FC0160817181828193810E9432
:101BC000CC1388234CF4CE018B559F4F21E030E09D
:101BD000FC01318320836DC0CE018F559F4F20E0E3
:101BE0003FEF4FE757E4FC0160817181828193816F
:101BF0000E94D91418160CF04AC0CE0183569F4F8C
:101C000020E030E040E251E4FC016081718182819A
:101C100093810E94DD14DC01CB018E010B551F4F17
:101C2000BC01CD010E943814DC01CB01F801918385
:101C3000808324C0CE0189559F4F29E130E0FC010B
:101C400031832083CE0189559F4FFC018081918192
:101C50000197F1F79E0129553F4FF9019183808348
:101C6000CE018B559F4F9E012B553F4FF90120818F
:101C7000318121503109FC0131832083CE018B5504
:101C80009F4FFC0180819181892BA1F655C08E0167
:101C90000B551F4FCE018F559F4FFC016081718105
:101CA000828193810E943814DC01CB01F801918379
:101CB0008083CE0187559F4F9E012B553F4FF901E1
:101CC00020813181FC0131832083CE0187559F4FD4
:101CD000FC01808191810197F1F79E0127553F4FCB
:101CE000F9019183808328C08E0104561F4FCE01D5
:101CF00088569F4FFC0160817181828193810E948F
:101D00003814DC01CB01F8018083CE0185559F4F4B
:101D10009E0124563F4FF9012081FC012083CE0112
:101D200085559F4FFC018081282F2A95F1F7CE0120
:101D300085559F4FFC0120838B81882309F0D3C8F0
:101D40008BE290E02BE230E0F90120812F7BFC0157
:101D5000208384E290E024E230E0F90120812F60CA
:101D6000FC012083C555DF4F0FB6F894DEBF0FBED0
:101D7000CDBFDF91CF911F910F9108950F931F93C6
:101D8000CF93DF93CDB7DEB7C855D1090FB6F8941E
:101D9000DEBF0FBECDBF9E01285A3F4FF9018083A1
:101DA00080E090E0A0EFB1E48A839B83AC83BD83A5
:101DB00020E030E04AE753E46A817B818C819D8199
:101DC0000E94DD14DC01CB018E839F83A887B98735
:101DD00020E030E040E85FE36E817F81888599856F
:101DE0000E94CC1388232CF481E090E09B878A87A3
:101DF0003FC020E03FEF4FE757E46E817F81888549
:101E000099850E94D91418164CF520E030E040E284
:101E100051E46A817B818C819D810E94DD14DC010B
:101E2000CB01BC01CD010E943814DC01CB019B87A2
:101E30008A870FC089E190E09D878C878C859D857E
:101E40000197F1F79D878C878A859B8501979B87F2
:101E50008A878A859B85892B69F714C06E817F816B
:101E6000888599850E943814DC01CB019B878A877D
:101E70008A859B859F878E878E859F850197F1F741
:101E80009F878E8784E290E024E230E0F901208190
:101E90002F60FC01208384E290E024E230E0F9012D
:101EA00020812061FC0120838AE290E02AE230E078
:101EB000F90120812860FC0120838AE290E02AE277
:101EC00030E0F90120812064FC01208385E290E06C
:101ED00025E230E0F9012081207FFC01208385E2AA
:101EE00090E025E230E0F90120812F7EFC01208383
:101EF0008BE290E02BE230E0F90120812F7BFC01A6
:101F000020838BE290E02BE230E0F9012081277FF3
:101F1000FC0120838AE999E9A9E9BEE3888B998BC2
:101F2000AA8BBB8B2BEA3AEA4AEA5EE36889798995
:101F30008A899B890E94DD14DC01CB018C8B9D8BEF
:101F4000AE8BBF8B20E030E040E85FE36C897D8999
:101F50008E899F890E94CC1388231CF481E0888F8E
:101F600091C020E030E04FE753E46C897D898E8991
:101F70009F890E94D91418160CF07BC020E030E035
:101F80004AE754E4688979898A899B890E94D01339
:101F9000DC01CB01898F9A8FAB8FBC8F20E030E0C2
:101FA0004AE753E4698D7A8D8B8D9C8D0E94DD14F8
:101FB000DC01CB018D8F9E8FAF8FB8A320E030E086
:101FC00040E85FE36D8D7E8D8F8D98A10E94CC13CC
:101FD00088232CF481E090E09AA389A33FC020E0FD
:101FE0003FEF4FE757E46D8D7E8D8F8D98A10E9456
:101FF000D91418164CF520E030E040E251E4698D28
:102000007A8D8B8D9C8D0E94DD14DC01CB01BC018F
:10201000CD010E943814DC01CB019AA389A30FC023
:1020200089E190E09CA38BA38BA19CA10197F1F780
:102030009CA38BA389A19AA101979AA389A389A1A3
:102040009AA1892B69F724C06D8D7E8D8F8D98A103
:102050000E943814DC01CB019AA389A389A19AA11B
:102060009EA38DA38DA19EA10197F1F79EA38DA3A1
:102070000FC06C897D898E899F890E943814DC018C
:10208000CB01888F888D8FA38FA18A95F1F78FA3BD
:1020900085E290E025E230E0F90120812061FC0139
:1020A000208385E290E025E230E0F9012081226082
:1020B000FC01208380E090E0A0E8BFE388A799A717
:1020C000AAA7BBA72BEA3AEA4AEA5EE368A579A584
:1020D0008AA59BA50E94DD14DC01CB018CA79DA7DE
:1020E000AEA7BFA720E030E040E85FE36CA57DA588
:1020F0008EA59FA50E94CC1388231CF481E088AB99
:1021000091C020E030E04FE753E46CA57DA58EA59B
:102110009FA50E94D91418160CF07BC020E030E077
:102120004AE754E468A579A58AA59BA50E94D01327
:10213000DC01CB0189AB9AABABABBCAB20E030E0B0
:102140004AE753E469A97AA98BA99CA90E94DD14E6
:10215000DC01CB018DAB9EABAFABB8AF20E030E084
:1021600040E85FE36DA97EA98FA998AD0E94CC13CA
:1021700088232CF481E090E09AAF89AF3FC020E043
:102180003FEF4FE757E46DA97EA98FA998AD0E9454
:10219000D91418164CF520E030E040E251E469A96A
:1021A0007AA98BA99CA90E94DD14DC01CB01BC019A
:1021B000CD010E943814DC01CB019AAF89AF0FC06A
:1021C00089E190E09CAF8BAF8BAD9CAD0197F1F7AF
:1021D0009CAF8BAF89AD9AAD01979AAF89AF89ADAE
:1021E0009AAD892B69F724C06DA97EA98FA998ADF6
:1021F0000E943814DC01CB019AAF89AF89AD9AAD4A
:102200009EAF8DAF8DAD9EAD0197F1F79EAF8DAFB7
:102210000FC06CA57DA58EA59FA50E943814DC017A
:10222000CB0188AB88A98FAF8FAD8A95F1F78FAFBF
:1022300085E290E025E230E0F90120812F7EFC016B
:1022400020839E01205C3F4F80E090E0A0E8BFE348
:10225000F90180839183A283B3838E010C5B1F4FAE
:10226000CE01805C9F4F2BEA3AEA4AEA5EE3FC012A
:1022700060817181828193810E94DD14DC01CB0138
:10228000F80180839183A283B383CE018C5B9F4F3F
:1022900020E030E040E85FE3FC01608171818281F1
:1022A00093810E94CC1388233CF4CE01885B9F4F1E
:1022B00021E0FC012083F3C0CE018C5B9F4F20E026
:1022C00030E04FE753E4FC016081718182819381AA
:1022D0000E94D91418160CF0D1C0CE01805C9F4F1B
:1022E00020E030E04AE754E4FC01608171818281A2
:1022F00093810E94D013DC01CB019E01275B3F4FED
:10230000F90180839183A283B3838E01035B1F4F06
:10231000CE01875B9F4F20E030E04AE753E4FC01A9
:1023200060817181828193810E94DD14DC01CB0187
:10233000F80180839183A283B383CE01835B9F4F97
:1023400020E030E040E85FE3FC0160817181828140
:1023500093810E94CC1388234CF4CE018F5A9F4F57
:1023600021E030E0FC01318320836DC0CE01835B2E
:102370009F4F20E03FEF4FE757E4FC016081718100
:10238000828193810E94D91418160CF04AC0CE01A4
:10239000875B9F4F20E030E040E251E4FC01608128
:1023A0007181828193810E94DD14DC01CB018E0159
:1023B0000F5A1F4FBC01CD010E943814DC01CB0124
:1023C000F8019183808324C0CE018D5A9F4F29E16B
:1023D00030E0FC0131832083CE018D5A9F4FFC01F8
:1023E000808191810197F1F79E012D5A3F4FF901AC
:1023F00091838083CE018F5A9F4F9E012F5A3F4F6A
:10240000F9012081318121503109FC013183208380
:10241000CE018F5A9F4FFC0180819181892BA1F6BB
:1024200055C08E010F5A1F4FCE01835B9F4FFC0199
:1024300060817181828193810E943814DC01CB011B
:10244000F80191838083CE018B5A9F4F9E012F5AB2
:102450003F4FF90120813181FC0131832083CE017E
:102460008B5A9F4FFC01808191810197F1F79E016A
:102470002B5A3F4FF9019183808328C08E01085B5E
:102480001F4FCE018C5B9F4FFC0160817181828167
:1024900093810E943814DC01CB01F8018083CE01C6
:1024A000895A9F4F9E01285B3F4FF9012081FC0113
:1024B0002083CE01895A9F4FFC018081282F2A95C5
:1024C000F1F7CE01895A9F4FFC0120830E948C06B0
:1024D000CE01885A9F4FFC0180818C6060E00E9491
:1024E000DD0060E088E20E94DD0060E080E40E94A0
:1024F000DD0019820DC08981882F90E080509F4FA8
:10250000FC01808161E00E94DD0089818F5F898309
:102510008981803480F360E080E00E947113C85AA2
:10252000DF4F0FB6F894DEBF0FBECDBFDF91CF9166
:102530001F910F910895CF93DF9300D01F92CDB7D5
:10254000DEB79B838A8334C08A819B81FC018081B2
:10255000853211F58A819B8101969B838A838A81CA
:102560009B81FC018081805389838981882344F089
:10257000898188302CF4898161E00E94DD0013C0DC
:1025800061E085E20E94DD008A819B81FC018081FF
:1025900061E00E94DD0007C08A819B81FC0180818F
:1025A00061E00E94DD008A819B8101969B838A8382
:1025B0008A819B81FC018081882331F60F900F90E6
:1025C0000F90DF91CF910895CF93DF93CDB7DEB712
:1025D00061970FB6F894DEBF0FBECDBF9B878A8789
:1025E0007D876C8725E0CE010596FC01322F119284
:1025F0003A95E9F784E090E09A8389831C821B82F4
:1026000020C08A859B852AE030E0B9010E94A4138E
:10261000482F9E012B5F3F4F89819A81820F931F24
:10262000FC0140838A859B852AE030E0B9010E9445
:10263000A413CB019B878A8789819A8101979A830A
:1026400089838A859B85892BE1F68C859D850196FA
:1026500091F405C08B819C8101969C838B839E01A4
:102660002B5F3F4F8B819C81820F931FFC018081E8
:10267000882381F30AC025E030E08C859D85A9017F
:10268000481B590BCA019C838B838A859B859923A0
:1026900024F461E08DE20E94DD008B819C819A83AD
:1026A000898312C09E012B5F3F4F89819A81820FDF
:1026B000931FFC018081805D61E00E94DD008981C3
:1026C0009A8101969A83898389819A81059754F327
:1026D00061960FB6F894DEBF0FBECDBFDF91CF91EC
:1026E0000895CF93DF9300D0CDB7DEB789836A8397
:1026F0008981843108F023C08A81882F90E081305D
:10270000910549F08230910594F08230910539F0BD
:10271000039749F00DC089818064898309C089814C
:102720008C5E898305C089818C5A898301C0000031
:1027300089818068898360E089810E94DD000F9033
:102740000F90DF91CF91089597FB072E16F4009418
:1027500007D077FD09D00E94B81307FC05D03EF4DE
:10276000909581959F4F0895709561957F4F08953D
:10277000AA1BBB1B51E107C0AA1FBB1FA617B707A7
:1027800010F0A61BB70B881F991F5A95A9F78095C3
:102790009095BC01CD01089597D008F481E008958B
:1027A0000CD0CDC0C5D040F0BCD030F021F45F3F9C
:1027B00019F0AEC05111F7C0B1C0D2D098F399232F
:1027C000C9F35523B1F3951B550BBB27AA276217F5
:1027D0007307840738F09F5F5F4F220F331F441F3A
:1027E000AA1FA9F333D00E2E3AF0E0E830D0915072
:1027F0005040E695001CCAF729D0FE2F27D0660F5F
:10280000771F881FBB1F261737074807AB07B0E89D
:1028100009F0BB0B802DBF01FF2793585F4F2AF0B3
:102820009E3F510568F074C0BEC05F3FECF3983E18
:10283000DCF3869577956795B795F7959F5FC9F710
:10284000880F911D9695879597F90895E1E0660F99
:10285000771F881FBB1F621773078407BA0720F012
:10286000621B730B840BBA0BEE1F88F7E09508957B
:102870007FD088F09F5790F0B92F9927B751A0F0DB
:10288000D1F0660F771F881F991F1AF0BA95C9F704
:1028900012C0B13081F086D0B1E0089583C0672FB7
:1028A000782F8827B85F39F0B93FCCF386957795B4
:1028B0006795B395D9F73EF490958095709561959D
:1028C0007F4F8F4F9F4F0895990F0008550FAA0B08
:1028D000E0E8FEEF16161706E807F907C0F0121633
:1028E0001306E407F50798F0621B730B840B950B36
:1028F00039F40A2661F0232B242B252B21F408958B
:102900000A2609F4A140A6958FEF811D811D089527
:1029100097F99F6780E870E060E008959FEF80EC92
:10292000089500240A941616170618060906089535
:1029300000240A9412161306140605060895092E9B
:102940000394000C11F4882352F0BB0F40F4BF2B0A
:1029500011F460FF04C06F5F7F4F8F4F9F4F08954A
:1029600057FD9058440F551F59F05F3F71F0479540
:10297000880F97FB991F61F09F3F79F08795089525
:10298000121613061406551FF2CF4695F1DF08C044
:10299000161617061806991FF1CF86957105610561
:1029A00008940895E894BB2766277727CB0197F909
:1029B00008958ADF08F48FEF08950BD0C0CFB1DF00
:1029C00028F0B6DF18F0952309F0A2CFA7CF112485
:1029D000EACFC6DFA0F3959FD1F3950F50E0551FC6
:1029E000629FF001729FBB27F00DB11D639FAA2764
:1029F000F00DB11DAA1F649F6627B00DA11D661FB3
:102A0000829F2227B00DA11D621F739FB00DA11DD3
:102A1000621F839FA00D611D221F749F3327A00D8D
:102A2000611D231F849F600D211D822F762F6A2F29
:102A300011249F5750408AF0E1F088234AF0EE0FAE
:102A4000FF1FBB1F661F771F881F91505040A9F7BB
:102A50009E3F510570F05CCFA6CF5F3FECF3983EF0
:102A6000DCF3869577956795B795F795E7959F5F22
:102A7000C1F7FE2B880F911D9695879597F90895BC
:042A8000F894FFCFF8
:102A84000C12120C000000000C1204081E000000BE
:102A94000A15110A040000000305090B0B1818009D
:102AA4001F0E0E0404040404010105051515150088
:102AB4000E11111F1F1F1F00000000000000000066
:102AC400436F6E677261747320004C6F6164696E4A
:102AD400672000250048656C6C6F20776F726C640A
:102AE40000427920596F75724E616D652048657298
:102AF40065002020202065587472656D65002020D3
:0C2B0400456C656374726F6E696373004A
:00000001FF
