:020000020000FC
:1000000058E05EBF5FEF5DBF5FEF5AB954B92A9801
:100010000E945D0008E30E943E000E945D000EE029
:100020000E943E0001E00E943E000E945D0006E04A
:100030000E943E0000E80E943E00F0E0E4E60591E8
:10004000003019F00E944800FACF00EC0E943E00F8
:10005000F0E0E4E70591003019F00E944800FACF83
:100060000C9430004C41424F204445204D494352AE
:100070004F532000474C4F4D414520000BB9289865
:1000800029982A9A0E9452002A980E9455000895A1
:100090000BB9289A29982A9A0E9452002A980E94FD
:1000A000550008950000000008951F931CE30E946E
:1000B00052001A95E1F71F9108951F9314E10E94D1
:0A00C00055001A95E1F71F9108950D
:00000001FF
