:020000020000FC
:100C0000008A007E008D0042004E0C540C5C007B7C
:100C10000081008F0042004E0C5C0C62007E00845C
:100C2000009E0042004E0C620C6C0081008700ADFB
:100C30000042004E0C6C0C8C0084008A00BC004208
:100C4000004E0C8C0C7A0087007B00CB0042004EDB
:100C50000C7A0C544D61746C6162000053656E6FC8
:100C60000000437561647261646100004469656EEF
:100C7000746520736965727261004D6564697220E4
:100C8000696E74656E7369646164000054726961B1
:100C90006E67756C61720000496E74656E7369648D
:100CA00061643A004573706572612068616E6473B7
:100CB00068616B65000047756172646172206D75D3
:100CC0006573747261730000456E7669616E646F5E
:100CD0002073656E616C00002A2A4269656E766534
:100CE0006E69646F732A2A002A2A474C4F6D41654A
:100CF00020323031362A2A000000000000000001B6
:100D0000010203030405060708090A0C0D0F10125F
:100D1000131517191B1D1F212325272A2C2E3133AC
:100D200036383B3E404346494C4F5154575A5D601C
:100D300063676A6D707376797C808386898C8F9205
:100D400095989C9FA2A5A8ABAEB0B3B6B9BCBFC1E5
:100D5000C4C7C9CCCED1D3D5D8DADCDEE0E2E4E634
:100D6000E8EAECEDEFF0F2F3F5F6F7F8F9FAFBFC50
:100D7000FCFDFEFEFFFFFFFFFFFFFFFFFFFFFFFE8B
:100D8000FEFDFCFCFBFAF9F8F7F6F5F3F2F0EFEDF7
:100D9000ECEAE8E6E4E2E0DEDCDAD8D5D3D1CECC8A
:100DA000C9C7C4C1BFBCB9B6B3B0AEABA8A5A29FFA
:100DB0009C9895928F8C898683807C797673706DF0
:100DC0006A6763605D5A5754514F4C494643403EF1
:100DD0003B383633312E2C2A272523211F1D1B1982
:100DE00017151312100F0D0C0A0908070605040346
:080DF000020101000000CBCB61
:0200000002C03C
:100004003AC00FE50DBF08E00EBF00C04BD204D2CA
:10001400F3D048D1D9D14DD201D075C2C09821E0D6
:1000240029D2229527D2C09822E024D2229522D226
:10003400FD01369614D0FD01389611D001C0089503
:10004400C0982CE017D2229515D2BFD0BED000B3F1
:1000540004FF09C003FF09C005FF0AC0F1CFB59032
:10006400A590F5010994FD01FACFFD013296F7CF71
:10007400FD013496F4CF0027112755276627C1CFF9
:100084002EE3C09AF7D12295F5D1FD013A96B590A9
:10009400A590F50119D20895C09820ECEBD12295D2
:1000A400E9D120E2C09AE6D12295E4D1FD013C9643
:1000B400B590A590F50108D2089520E2C09ADAD14E
:1000C4002295D8D1FD013A96B590A590F501FCD1C1
:1000D400C09820ECCFD12295CDD12EE3C09ACAD1BD
:1000E4002295C8D1FD013C96B590A590F501ECD1BF
:1000F4000895BCE0A0E092CFBCE0AEE08FCFBCE0BE
:10010400ACE18CCFBCE0AAE289CFBCE0A8E386CF07
:10011400BCE0A6E483CF87C0F6C1C09821E0AAD191
:100124002295A8D1C09822E0A5D12295A3D1FCE0C4
:10013400ECE5CAD1D3C0E7C1C09821E09BD1229598
:1001440099D1C09822E096D1229594D1FCE0E2E6C0
:10015400BBD1D5C0D8C1C09821E08CD122958AD119
:10016400C09822E087D1229585D1FCE0ECE6ACD1A1
:10017400C0C0C9C1C09821E07DD122957BD1C0986F
:1001840022E078D1229576D1FCE0ECE89DD1C8C07C
:10019400BAC11FC110E20FEF0A95F1F71A95D9F70A
:1001A40008951FE81A95F1F7089505D004D003D0F7
:1001B40002D001D008950FEF1FE05FEF5A95F1F7D9
:1001C4001A95E1F70A95C1F708950F931F930AE072
:1001D40014E607D01A95E9F70A95D1F71F910F9104
:1001E40008950F931F930AE011271A95F1F70A95C2
:1001F400D9F71F910F91089508E10AB906E000BDEF
:1002040000E000BD07E609B908950F930BB105FF9F
:10021400FDCF2CB90F9108950F930BB107FFFDCFBC
:100224003CB10F91089540E0C09821E023D122957C
:1002340021D1C09822E01ED122951CD1FCE0E4EA31
:1002440043D1EADF032FE8DF132F1AD0012F403008
:10025400D1F3C09821E00ED122950CD1C09822E0B0
:1002640009D1229507D1FCE0E6EB2ED1F0E0E0E6DF
:10027400D3DF032FD1DF132F03D012D0012FFACFF6
:100284001B3C11F4101709F00895403009F002C026
:1002940041E008950BEC019300831F911F9106C068
:1002A4000193089504B30F6F04BB0895C09821E02F
:1002B400E1D02295DFD0C09822E0DCD02295DAD0BC
:1002C400FCE0E4E501D1F0E0E0E6019111911B3C92
:1002D40011F41017C1F305BB012FF8CFFCE0E8EFD0
:1002E400059115911B3C11F41017C1F305BB012FA7
:1002F400F8CF0FEF039505BB00000000FBCF0FEF15
:1003040004BB00270FEF05BB1FEF1A95F1F70F375A
:10031400C8F300E005BB1FEF1A95F1F7D1F7EFCF53
:100324000FEF04BB002705BB1FEF1A95F1F70395E8
:100334000F37C8F305BB1FEF1A95F1F70A95D1F7EC
:10034400EFCF1BD004E0402E0081002329F400E20B
:1003540001934A94C9F700814394005D019300819D
:100364004A94D9F735970895ECDF06E0402E4A9475
:1003740001910032E1F3319708957F926F9207E281
:10038400502E00E1402E14D003E0502E08EE402EF3
:100394000FD000E0502E04E6402E0AD000E0502E8C
:1003A4000AE0402E05D0608234976F907F900895C4
:1003B4000027751438F011F4641420F064187508DB
:1003C4000395F7CF0193089507E806B900E407B948
:1003D4000895C09821E04ED022954CD0C09822E0D8
:1003E40049D0229547D0FCE0E8E96ED0E4DEC0981D
:1003F40020EC40D022953ED000E00ABB00E407B9CF
:10040400369A3699FECF64B075B0F0E0E6E6ACDF1C
:10041400F0E0E6E63CD0EACF07B3006F07BB07B3D2
:10042400076007BBC198C09828E3B4DEB3DEB2DE30
:1004340021D0B0DE1FD0B5DE1DD028E2B2DE1AD046
:10044400C09828E217D0229515D0C0982FE012D07A
:10045400229510D0C09821E00DD022950BD0C098E1
:1004640026E008D0229506D0C0982FE003D022952C
:1004740001D008958FDE022F007F18B31F70012B67
:1004840008BBC29A000000000000C298089555E01D
:100494002191C09AEFDF2295EDDF21915A955030DA
:1004A400C1F708958A98929A00E40BBF02E005BF51
:1004B400789413D08ADEBCE0A0E08C988B988D9859
:1004C400949A939A959A08952591C09AD3DF229588
:1004D400D1DF25912030C9F70895C09821E0CADF03
:1004E4002295C8DFC09822E0C5DF2295C3DFFCE077
:1004F400E8EDEADFC09820ECBDDF2295BBDFFCE02D
:08050400E8EEE2DF0895FFCFED
:00000001FF
