:020000020000FC
:100C00000089008000E2004400500C460C4E007D3C
:100C10000083008C004400500C4E0C540080008671
:100C2000008D004400500C540C5E00830089008E3F
:100C3000004400500C5E0C6C0086007D008F004468
:100C400000500C6C0C464D61746C61620000536581
:100C50006E6F0000437561647261646100004469F5
:100C6000656E746520736965727261004D656469B3
:100C70007220696E74656E73696461640000457307
:100C8000706572616E646F2068616E647368616B19
:100C900065004775617264616E646F206D75657380
:100CA000747261730000456E7669616E646F2073C3
:100CB000656E616C00000000000000000001010290
:100CC00003030405060708090A0C0D0F101213157B
:100CD00017191B001D1F212325272A2C2E313336DF
:100CE000383B3E404346494C4F5154575A005D6093
:100CF00063676A6D707376797C808386898C8F9246
:100D000095989C9FA2A5A800ABAEB0B3B6B9BCBFE6
:100D1000C1C4C7C9CCCED1D3D5D8DADCDEE0E2E499
:100D2000E600E8EAECEDEFF0F2F3F5F6F7F8F9FAA1
:100D3000FB00FCFCFDFEFEFFFFFFFFFFFFFFFFFFD0
:100D4000FFFFFEFEFDFCFCFBFAF9F800F7F6F5F3F9
:100D5000F2F0EFEDECEAE8E6E4E2E0DEDCDAD8D54A
:100D6000D3D1CECCC900C7C4C1BFBCB9B6B3B0AE35
:100D7000ABA8A5A29F9C9895928F8C8986838000B2
:100D80007C797673706D6A6763605D5A5754514F12
:100D90004C494643403E3B383633312E2C2A2725DA
:100DA00023211F1D1B1917151312100F0D0C0A09F3
:100DB000080706050403020101000000000000000E
:100DC0000000000001010203030405060708090AE8
:100DD0000C0D0F101213150017191B1D1F212325B1
:100DE000272A2C2E313336383B3E404346494C4F60
:100DF000515457005A5D6063676A6D707376797CF1
:100E00000102030405060708090A01020304050696
:100E10000708090A0102030405060708090A010276
:100E2000030405060708090A01020304050607086A
:020E3000090AAD
:1000000000C00FE50DBF08E00EBF00C041D180D198
:10001000C09821E06BD1229569D1C09822E066D1C9
:10002000229564D1FCE0E6E47CD1C09820EC5ED15E
:1000300022955CD1FCE0EEE474D1C09821E056D169
:10004000229554D1C09822E051D122954FD1FD0183
:1000500036960DD0FD0138960AD000C072D003B399
:1000600002FF09C003FF09C004FF0AC0F7CFB59023
:10007000A590F5010994FD01FACFFD013296F7CF65
:10008000FD013496F4CFBDCF2EE3C09A2FD1229537
:100090002DD1FD013A96B590A590F50142D1089574
:1000A000C09820EC23D1229521D120E2C09A1ED104
:1000B00022951CD1FD013C96B590A590F50131D15A
:1000C000089520E2C09A12D1229510D1FD013A96EE
:1000D000B590A590F50125D1C09820EC07D12295C7
:1000E00005D12EE3C09A02D1229500D1FD013C96A4
:1000F000B590A590F50115D10895BCE0A0E09DCF85
:10010000BCE0AEE09ACFBCE0ACE197CFBCE0AAE2A5
:1001100094CFBCE0A8E391CF90CF8FCF8ECF8DCF7F
:1001200010E20FEF0A95F1F71A95D9F708951FE835
:100130001A95F1F7089505D004D003D002D001D06C
:1001400008950F931F930AE014E607D01A95E9F774
:100150000A95D1F71F910F9108950F931F930AE00D
:1001600014E607D01A95E9F70A95D1F71F910F9178
:1001700008950F931F930AE011271A95F1F70A9536
:10018000D9F71F910F91089508E100930A0006E046
:100190000093200000E00093200007E60093090090
:1001A0000F9300910B0005FFFCCF20930C000F91E3
:1001B00008950F9300910B0007FFFCCF30910C00C6
:1001C0000F91089540E0F5DF032FF3DF132F0CD0DC
:1001D000012F4030D1F3F0E0E0E6EBDF032FE9DF61
:1001E000132F02D011D0FBCF1B3C11F4101709F0D4
:1001F0000895403009F002C041E008950BEC0193EE
:1002000000831F911F9106C00193089504B30F6FDF
:1002100004BB0895F0E0E0E6019111911B3C11F45C
:100220001017C1F305BB012FF8CFFCE0E6EB0591F9
:1002300015911B3C11F41017C1F305BB012FF8CF2A
:100240000FEF039505BB00000000FBCF0FEF04BBD1
:1002500000270FEF05BB1FEF1A95F1F70F37C8F313
:1002600000E005BB1FEF1A95F1F7D1F7EFCF0FEFC5
:1002700004BB002705BB1FEF1A95F1F703950F3755
:10028000C8F305BB1FEF1A95F1F70A95D1F7EFCF29
:1002900007B3006F07BB07B3076007BBC198C098DF
:1002A00028E33EDF3DDF3CDF21D03ADF1FD03FDFD8
:1002B0001DD028E23CDF1AD0C09828E217D0229542
:1002C00015D0C0982FE012D0229510D0C09821E010
:1002D0000DD022950BD0C09826E008D0229506D0EC
:1002E000C0982FE003D0229501D0089519DF022F86
:1002F000007F18B31F70012B08BBC29A00000000DA
:100300000000C29808958B9A929A00E405BF7894F1
:10031000BCE0A0E0A298A398A498AA9AAB9AAC9A41
:1003200008952591C09AE2DF2295E0DF25912030E3
:06033000C9F70895FFCF9C
:00000001FF
