:020000020000FC
:100C0000008100780084003C00480C460C4E0075C2
:100C1000007B0092003C00480C4E0C540078007E93
:100C200000A0003C00480C540C5E007B008100AE2C
:100C3000003C00480C5E0C6C007E007500BC003C63
:100C400000480C6C0C464D61746C61620000536589
:100C50006E6F0000437561647261646100004469F5
:100C6000656E746520736965727261004D656469B3
:100C70007220696E74656E73696461640000496E08
:100C800074656E73696461643A0000004573706551
:100C900072616E646F2068616E647368616B650079
:100CA0004775617264616E646F206D7565737472EF
:100CB00061730000456E7669616E646F2073656EC6
:100CC000616C00000000000000000001010203034D
:100CD0000405060708090A0C0D0F10121315171941
:100CE0001B001D1F212325272A2C2E313336383B8C
:100CF0003E404346494C4F5154575A005D6063672C
:100D00006A6D707376797C808386898C8F929598D2
:100D10009C9FA2A5A800ABAEB0B3B6B9BCBFC1C47E
:100D2000C7C9CCCED1D3D5D8DADCDEE0E2E4E60028
:100D3000E8EAECEDEFF0F2F3F5F6F7F8F9FAFB007C
:100D4000FCFCFDFEFEFFFFFFFFFFFFFFFFFFFFFFBD
:100D5000FEFEFDFCFCFBFAF9F800F7F6F5F3F2F005
:100D6000EFEDECEAE8E6E4E2E0DEDCDAD8D5D3D178
:100D7000CECCC900C7C4C1BFBCB9B6B3B0AEABA876
:100D8000A5A29F9C9895928F8C89868380007C7900
:100D90007673706D6A6763605D5A5754514F4C4962
:100DA0004643403E3B383633312E2C2A272523211B
:100DB0001F1D1B1917151312100F0D0C0A09080718
:100DC000060504030201010000000000000000000D
:100DD000000001010203030405060708090A0C0DBF
:100DE0000F101213150017191B1D1F212325272A69
:100DF0002C2E313336383B3E404346494C4F5154FC
:0E0E000057005A5D6063676A6D707376797C87
:0200000002C03C
:1000040038C00FE50DBF08E00EBF00C051D215D2B5
:10001400CDD155D201D065C2C09821E03CD2229501
:100024003AD2C09822E037D2229535D2FD013696D5
:1000340014D0FD01389611D001C00895C0982CE069
:100044002AD2229528D2B0D0AFD000B304FF09C081
:1000540003FF09C005FF0AC0F1CFB590A590F501D3
:100064000994FD01FACFFD013296F7CFFD013496D4
:10007400F4CFC7CF2EE3C09A0ED222950CD2FD0145
:100084003A96B590A590F50123D20895C09820EC36
:1000940002D2229500D220E2C09AFDD12295FBD152
:1000A400FD013C96B590A590F50112D2089520E289
:1000B400C09AF1D12295EFD1FD013A96B590A59061
:1000C400F50106D2C09820ECE6D12295E4D12EE3C6
:1000D400C09AE1D12295DFD1FD013C96B590A5905F
:1000E400F501F6D10895BCE0A0E096CFBCE0AEE007
:1000F40093CFBCE0ACE190CFBCE0AAE28DCFBCE0F2
:10010400A8E38ACFC09821E0C6D12295C4D1C09873
:1001140022E0C1D12295BFD1FCE0E6E4D9D1E1C10E
:10012400C09821E0B8D12295B6D1C09822E0B3D1CD
:100134002295B1D1FCE0EEE4CBD1D3C1C09821E04B
:10014400AAD12295A8D1C09822E0A5D12295A3D105
:10015400FCE0E4E5BDD1C5C1C09821E09CD1229565
:100164009AD1C09822E097D1229595D1FCE0EEE592
:10017400AFD1B7C120C110E20FEF0A95F1F71A957C
:10018400D9F708951FE81A95F1F7089505D004D01A
:1001940003D002D001D008950AE014E605D01A95E0
:1001A400E9F70A95D1F708950F931F930AE014E62F
:1001B40007D01A95E9F70A95D1F71F910F91089581
:1001C4000F931F930AE011271A95F1F70A95D9F7AF
:1001D4001F910F91089508E100930A0006E000932F
:1001E400200000E00093200007E6009309000F932D
:1001F40000910B0005FFFCCF20930C000F91089594
:100204000F9300910B0007FFFCCF30910C000F916E
:10021400089540E0C09821E03ED122953CD1C09899
:1002240022E039D1229537D1F6E0E6E451D1C098E5
:100234002CE031D122952FD1E3DF032FE1DF132FFF
:100244001ED0012F4030D1F3C09821E024D1229553
:1002540022D1C09822E01FD122951DD1F6E0E0E51D
:1002640037D1C0982CE017D1229515D1F0E0E0E603
:10027400C7DF032FC5DF132F02D011D0FBCF1B3CE8
:1002840011F4101709F00895403009F002C041E05C
:1002940008950BEC019300831F911F9106C00193F5
:1002A400089504B30F6F04BB0895F0E0E0E60191F4
:1002B40011911B3C11F41017C1F305BB012FF8CFAA
:1002C400FCE0E4EC059115911B3C11F41017C1F30B
:1002D40005BB012FF8CF0FEF039505BB000000000D
:1002E400FBCF0FEF04BB00270FEF05BB1FEF1A95E1
:1002F400F1F70F37C8F300E005BB1FEF1A95F1F7CC
:10030400D1F7EFCF0FEF04BB002705BB1FEF1A9502
:10031400F1F703950F37C8F305BB1FEF1A95F1F7F3
:100324000A95D1F7EFCF1BD004E0402E00810023C3
:1003340029F400E201934A94C9F700814394005DD3
:10034400019300814A94D9F735970895ECDF06E0CC
:10035400402E4A9401910032E1F3319708957F923F
:100364006F9207E2502E00E1402E14D003E0502E8D
:1003740008EE402E0FD000E0502E04E6402E0AD0A6
:1003840000E0502E0AE0402E05D0608234976F9032
:100394007F9008950027751438F011F4641420F048
:1003A400641875080395F7CF0193089507E806B913
:1003B40000E407B90895DFDEDEDEDDDEDCDEDBDE51
:1003C400DADED9DED8DED7DED6DED5DED4DED3DE85
:1003D400D2DED1DED0DECFDECEDECDDECCDECBDEB5
:1003E400CADEC9DEC8DEC7DEC6DEC5DEC4DEC3DEE5
:1003F400C2DEC1DEC0DEBFDEBEDEBDDEBCDEBBDE15
:10040400BADEB9DEB8DE00EF0ABB00E407B9369AFB
:100414003699FECF64B075B002E010E0602E712E04
:10042400C09821E038D0229536D0C09822E033D04D
:10043400229531D08BDF4CD0BECF07B3006F07BB02
:1004440007B3076007BBC198C09828E394DE93DE26
:1004540092DE21D090DE1FD095DE1DD028E292DE00
:100464001AD0C09828E217D0229515D0C0982FE052
:1004740012D0229510D0C09821E00DD022950BD037
:10048400C09826E008D0229506D0C0982FE003D06B
:10049400229501D008956FDE022F007F18B31F70DC
:1004A400012B08BBC29A000000000000C298089506
:1004B4008A98929A00E40BBF02E005BF7894BCE0EE
:1004C400A0E08C988B988D98949A939A959A089515
:1004D4002591C09AE0DF2295DEDF25912030C9F70F
:0404E4000895FFCFA9
:00000001FF
