:020000020000FC
:100C00000086007A0089003E004A0C540C5C007794
:100C1000007D008B003E004A0C5C0C62007A008074
:100C2000009A003E004A0C620C6C007D008300A913
:100C3000003E004A0C6C0C8C0080008600B8003E20
:100C4000004A0C8C0C7A0083007700C7003E004AF3
:100C50000C7A0C544D61746C6162000053656E6FC8
:100C60000000437561647261646100004469656EEF
:100C7000746520736965727261004D6564697220E4
:100C8000696E74656E7369646164000054726961B1
:100C90006E67756C61720000496E74656E7369648D
:100CA00061643A004573706572612068616E6473B7
:100CB00068616B65000047756172646172206D75D3
:100CC0006573747261730000456E7669616E646F5E
:100CD0002073656E616C00002A2A4269656E766534
:100CE0006E69646F732A2A002A2A474C4F6D41654A
:100CF00020323031362A2A000000000000000001B6
:100D0000010203030405060708090A0C0D0F10125F
:100D1000131517191B1D1F212325272A2C2E3133AC
:100D200036383B3E404346494C4F5154575A5D601C
:100D300063676A6D707376797C808386898C8F9205
:100D400095989C9FA2A5A8ABAEB0B3B6B9BCBFC1E5
:100D5000C4C7C9CCCED1D3D5D8DADCDEE0E2E4E634
:100D6000E8EAECEDEFF0F2F3F5F6F7F8F9FAFBFC50
:100D7000FCFDFEFEFFFFFFFFFFFFFFFFFFFFFFFE8B
:100D8000FEFDFCFCFBFAF9F8F7F6F5F3F2F0EFEDF7
:100D9000ECEAE8E6E4E2E0DEDCDAD8D5D3D1CECC8A
:100DA000C9C7C4C1BFBCB9B6B3B0AEABA8A5A29FFA
:100DB0009C9895928F8C898683807C797673706DF0
:100DC0006A6763605D5A5754514F4C494643403EF1
:100DD0003B383633312E2C2A272523211F1D1B1982
:100DE00017151312100F0D0C0A0908070605040346
:080DF000020101000000CBCB61
:0200000002C03C
:100004003AC00FE50DBF08E00EBF00C048D201D2D0
:10001400EFD044D1D6D14AD201D072C2C09821E0E7
:1000240026D2229524D2C09822E021D222951FD232
:10003400FD01369614D0FD01389611D001C0089503
:10004400C0982CE014D2229512D2BBD0BAD000B3FF
:1000540004FF09C003FF09C005FF0AC0F1CFB59032
:10006400A590F5010994FD01FACFFD013296F7CF71
:10007400FD013496F4CFC5CF2EE3C09AF8D1229572
:10008400F6D1FD013A96B590A590F5011AD20895DE
:10009400C09820ECECD12295EAD120E2C09AE7D1B5
:1000A4002295E5D1FD013C96B590A590F50109D2C4
:1000B400089520E2C09ADBD12295D9D1FD013A9668
:1000C400B590A590F501FDD1C09820ECD0D1229532
:1000D400CED12EE3C09ACBD12295C9D1FD013C9655
:1000E400B590A590F501EDD10895BCE0A0E096CFC0
:1000F400BCE0AEE093CFBCE0ACE190CFBCE0AAE2C0
:100104008DCFBCE0A8E38ACFBCE0A6E487CF87C04C
:10011400F7C1C09821E0ABD12295A9D1C09822E0C3
:10012400A6D12295A4D1FCE0ECE5CBD1D4C0E8C1A2
:10013400C09821E09CD122959AD1C09822E097D111
:10014400229595D1FCE0E2E6BCD1D6C0D9C1C098D5
:1001540021E08DD122958BD1C09822E088D12295BF
:1001640086D1FCE0ECE6ADD1C1C0CAC1C09821E0A3
:100174007ED122957CD1C09822E079D1229577D185
:10018400FCE0ECE89ED1C9C0BBC120C110E20FEF76
:100194000A95F1F71A95D9F708951FE81A95F1F71A
:1001A400089505D004D003D002D001D008950FEFF4
:1001B4001FE05FEF5A95F1F71A95E1F70A95C1F739
:1001C40008950F931F930AE014E607D01A95E9F7F0
:1001D4000A95D1F71F910F9108950F931F930AE089
:1001E40011271A95F1F70A95D9F71F910F910895E0
:1001F40008E10AB906E000BD00E000BD07E609B960
:1002040008950F930BB105FFFDCF2CB90F910895FD
:100214000F930BB107FFFDCF3CB10F91089540E060
:10022400C09821E024D1229522D1C09822E01FD188
:1002340022951DD1FCE0E4EA44D1EADF032FE8DF94
:10024400132F1AD0012F4030D1F3C09821E00FD1E1
:1002540022950DD1C09822E00AD1229508D1FCE064
:10026400E6EB2FD1F0E0E0E6D3DF032FD1DF132F4D
:1002740003D012D0012FFACF1B3C11F4101709F050
:100284000895403009F002C041E008950BEC019359
:1002940000831F911F9106C00193089504B30F6F4B
:1002A40004BB0895C09821E0E2D02295E0D0C09824
:1002B40022E0DDD02295DBD0FCE0E4E502D1F0E0E1
:1002C400E0E6019111911B3C11F41017C1F3202FAA
:1002D40098DF012FF7CFFCE0E8EF059115911B3C67
:1002E40011F41017C1F305BB012FF8CF0FEF0395DD
:1002F40005BB00000000FBCF0FEF04BB00270FEF8E
:1003040005BB1FEF1A95F1F70F37C8F300E005BBE3
:100314001FEF1A95F1F7D1F7EFCF0FEF04BB0027CA
:1003240005BB1FEF1A95F1F703950F37C8F305BB0B
:100334001FEF1A95F1F70A95D1F7EFCF1BD004E020
:10034400402E0081002329F400E201934A94C9F766
:1003540000814394005D019300814A94D9F7359755
:100364000895ECDF06E0402E4A9401910032E1F357
:10037400319708957F926F9207E2502E00E1402E4C
:1003840014D003E0502E08EE402E0FD000E0502E83
:1003940004E6402E0AD000E0502E0AE0402E05D09C
:1003A400608234976F907F9008950027751438F019
:1003B40011F4641420F0641875080395F7CF0193C1
:1003C400089507E806B900E407B90895C09821E044
:1003D4004ED022954CD0C09822E049D0229547D0E7
:1003E400FCE0E8E96ED0E3DEC09820EC40D0229532
:1003F4003ED000E00ABB00E407B9369A3699FECF36
:1004040064B075B0F0E0E6E6ACDFF0E0E6E63CD0E0
:10041400EACF07B3006F07BB07B3076007BBC198F8
:10042400C09828E3B3DEB2DEB1DE21D0AFDE1FD048
:10043400B4DE1DD028E2B1DE1AD0C09828E217D06D
:10044400229515D0C0982FE012D0229510D0C098D4
:1004540021E00DD022950BD0C09826E008D022953B
:1004640006D0C0982FE003D0229501D008958EDEE7
:10047400022F007F18B31F70012B08BBC29A000023
:1004840000000000C298089555E02191C09AEFDF62
:100494002295EDDF21915A955030C1F708958A983D
:1004A400929A00E40BBF02E005BF789413D089DE72
:1004B400BCE0A0E08C988B988D98949A939A959A26
:1004C40008952591C09AD3DF2295D1DF259120305C
:1004D400C9F70895C09821E0CADF2295C8DFC09803
:1004E40022E0C5DF2295C3DFFCE0E8EDEADFC09837
:1004F40020ECBDDF2295BBDFFCE0E8EEE2DF0895EF
:02050400FFCF27
:00000001FF
