:020000020000FC
:100C0000008100780084003C00480C460C4E0075C2
:100C1000007B0092003C00480C4E0C540078007E93
:100C200000A0003C00480C540C5E007B008100AE2C
:100C3000003C00480C5E0C6C007E007500BC003C63
:100C400000480C6C0C464D61746C61620000536589
:100C50006E6F0000437561647261646100004469F5
:100C6000656E746520736965727261004D656469B3
:100C70007220696E74656E73696461640000496E08
:100C800074656E73696461643A004573706572617E
:100C90006E646F2068616E647368616B6500477590
:100CA000617264616E646F206D75657374726173D7
:100CB0000000456E7669616E646F2073656E616CCD
:100CC0000000000000000000000101020303040511
:100CD000060708090A0C0D0F1012131517191B1D12
:100CE0001F212325272A2C2E313336383B3E404303
:100CF00046494C4F5154575A5D6063676A6D707333
:100D000076797C808386898C8F9295989C9FA2A50A
:100D1000A8ABAEB0B3B6B9BCBFC1C4C7C9CCCED105
:100D2000D3D5D8DADCDEE0E2E4E6E8EAECEDEFF099
:100D3000F2F3F5F6F7F8F9FAFBFCFCFDFEFEFFFF17
:100D4000FFFFFFFFFFFFFFFFFFFEFEFDFCFCFBFAC6
:100D5000F9F8F7F6F5F3F2F0EFEDECEAE8E6E4E2A5
:100D6000E0DEDCDAD8D5D3D1CECCC9C7C4C1BFBC94
:100D7000B9B6B3B0AEABA8A5A29F9C9895928F8C44
:100D8000898683807C797673706D6A6763605D5A4B
:100D90005754514F4C494643403E3B383633312E31
:100DA0002C2A272523211F1D1B1917151312100F7D
:100DB0000D0C0A09080706050403020101000000E2
:100DC000000000000000000001010203030405060A
:100DD0000708090A0C0D0F1012131517191B1D1FF8
:100DE000212325272A2C2E313336383B3E404346DB
:100DF000494C4F5154575A5D6063676A6D70737602
:020E0000797CFB
:0200000002C03C
:1000040038C00FE50DBF08E00EBF00C031D2EAD101
:10001400C1D135D201D045C2C09821E011D2229578
:100024000FD2C09822E00CD222950AD2FD01369656
:1000340014D0FD01389611D001C00895C0982CE069
:10004400FFD12295FDD1B2D0B1D000B304FF09C0D5
:1000540003FF09C005FF0AC0F1CFB590A590F501D3
:100064000994FD01FACFFD013296F7CFFD013496D4
:10007400F4CFC7CF2EE3C09AE3D12295E1D1FD019D
:100084003A96B590A590F50103D20895C09820EC56
:10009400D7D12295D5D120E2C09AD2D12295D0D100
:1000A400FD013C96B590A590F501F2D1089520E2AA
:1000B400C09AC6D12295C4D1FD013A96B590A590B7
:1000C400F501E6D1C09820ECBBD12295B9D12EE33D
:1000D400C09AB6D12295B4D1FD013C96B590A590B5
:1000E400F501D6D10895BCE0A0E096CFBCE0AEE027
:1000F40093CFBCE0ACE190CFBCE0AAE28DCFBCE0F2
:10010400A8E38ACFC09821E09BD1229599D1C098C9
:1001140022E096D1229594D1FCE0E6E4B9D1C1C1A4
:10012400C09821E08DD122958BD1C09822E088D14E
:10013400229586D1FCE0EEE4ABD1B3C1C09821E0B6
:100144007FD122957DD1C09822E07AD1229578D1B1
:10015400FCE0E4E59DD1A5C1C09821E071D12295D0
:100164006FD1C09822E06CD122956AD1FCE0EEE513
:100174008FD197C114C110E20FEF0A95F1F71A95C8
:10018400D9F708951FE81A95F1F7089505D004D01A
:1001940003D002D001D008950FEF1FE05FEF5A950E
:1001A400F1F71A95E1F70A95C1F708950F931F9394
:1001B4000AE014E607D01A95E9F70A95D1F71F91DA
:1001C4000F9108950F930AE000000A95E9F70F9143
:1001D400089508E100930A0006E00093200000E07F
:1001E4000093200007E6009309000F9300910B0091
:1001F40005FFFCCF20930C000F9108950F930091FD
:100204000B0007FFFCCF30910C000F91089540E0E4
:10021400C09821E015D1229513D1C09822E010D1C5
:1002240022950ED1F6E0E5E433D1E8DF032FE6DFD3
:10023400132F19D0012F4030D1F3C09821E000D101
:100244002295FED0C09822E0FBD02295F9D0F6E0AA
:10025400EFE41ED1F0E0E0E6D1DF032FCFDF132F70
:1002640002D011D0FBCF1B3C11F4101709F00895F4
:10027400403009F002C041E008950BEC0193008383
:100284001F911F9106C00193089504B30F6F04BB1F
:100294000895F0E0E0E6019111911B3C11F4101770
:1002A400C1F305BB012FF8CFFCE0E2EC05911591F9
:1002B4001B3C11F41017C1F305BB012FF8CF0FEF4E
:1002C400039505BB00000000FBCF0FEF04BB002724
:1002D4000FEF05BB1FEF1A95F1F70F37C8F300E0D6
:1002E40005BB1FEF1A95F1F7D1F7EFCF0FEF04BB62
:1002F400002705BB1FEF1A95F1F703950F37C8F3D5
:1003040005BB1FEF1A95F1F70A95D1F7EFCF1BD074
:1003140004E0402E0081002329F400E201934A9472
:10032400C9F700814394005D019300814A94D9F791
:1003340035970895ECDF06E0402E4A94019100328F
:10034400E1F3319708957F926F9207E2502E00E116
:10035400402E14D003E0502E08EE402E0FD000E0C3
:10036400502E04E6402E0AD000E0502E0AE0402E23
:1003740005D0608234976F907F900895002775149C
:1003840038F011F4641420F0641875080395F7CF5D
:100394000193089507E806B900E407B90895C098E1
:1003A40021E04ED022954CD0C09822E049D022952D
:1003B40047D0FCE0EEE76CD000E00ABB00E407B9EC
:1003C400369AEADEC09820EC3BD0229539D0369993
:1003D400FECF64B075B0F0E0E6E6ACDFF0E0E6E650
:1003E4003CD0EFCF07B3006F07BB07B3076007BB71
:1003F400C198C09828E3BFDEBEDEBDDE21D0BBDEDF
:100404001FD0C0DE1DD028E2BDDE1AD0C09828E27D
:1004140017D0229515D0C0982FE012D0229510D075
:10042400C09821E00DD022950BD0C09826E008D0CA
:10043400229506D0C0982FE003D0229501D00895CC
:100444009ADE022F007F18B31F70012B08BBC29ADB
:10045400000000000000C298089555E02191C09A60
:10046400EFDF2295EDDF21915A955030C1F70895C1
:100474008A98929A00E40BBF02E005BF7894BCE02E
:10048400A0E08C988B988D98949A939A959A089555
:100494002591C09AD5DF2295D3DF25912030C9F765
:0404A4000895FFCFE9
:00000001FF
