:020000020000FC
:100C00000085007C00880040004C0C460C4E0079AA
:100C1000007F00960040004C0C4E0C54007C00827B
:100C200000A40040004C0C540C5E007F008500B214
:100C30000040004C0C5E0C6C0082007900C000404B
:100C4000004C0C6C0C464D61746C61620000536585
:100C50006E6F0000437561647261646100004469F5
:100C6000656E746520736965727261004D656469B3
:100C70007220696E74656E73696461640000457307
:100C8000706572616E646F2068616E647368616B19
:100C900065004775617264616E646F206D75657380
:100CA000747261730000456E7669616E646F2073C3
:100CB000656E616C00000000000000000001010290
:100CC00003030405060708090A0C0D0F101213157B
:100CD00017191B001D1F212325272A2C2E313336DF
:100CE000383B3E404346494C4F5154575A005D6093
:100CF00063676A6D707376797C808386898C8F9246
:100D000095989C9FA2A5A800ABAEB0B3B6B9BCBFE6
:100D1000C1C4C7C9CCCED1D3D5D8DADCDEE0E2E499
:100D2000E600E8EAECEDEFF0F2F3F5F6F7F8F9FAA1
:100D3000FB00FCFCFDFEFEFFFFFFFFFFFFFFFFFFD0
:100D4000FFFFFEFEFDFCFCFBFAF9F800F7F6F5F3F9
:100D5000F2F0EFEDECEAE8E6E4E2E0DEDCDAD8D54A
:100D6000D3D1CECCC900C7C4C1BFBCB9B6B3B0AE35
:100D7000ABA8A5A29F9C9895928F8C8986838000B2
:100D80007C797673706D6A6763605D5A5754514F12
:100D90004C494643403E3B383633312E2C2A2725DA
:100DA00023211F1D1B1917151312100F0D0C0A09F3
:100DB000080706050403020101000000000000000E
:100DC0000000000001010203030405060708090AE8
:100DD0000C0D0F101213150017191B1D1F212325B1
:100DE000272A2C2E313336383B3E404346494C4F60
:100DF000515457005A5D6063676A6D707376797CF1
:0200000002C03C
:100004003CC00FE50DBF08E00EBF00C0B8D17CD1E5
:10001400BDD101D0CDC1C09821E0A4D12295A2D1F7
:10002400C09822E09FD122959DD1FD01369619D02A
:10003400FD01389616D006C0C0982CE093D12295C5
:1000440091D10895C0982CE08DD122958BD1C1D047
:10005400C0D000B304FF09C003FF09C005FF0AC0F4
:10006400F1CFB590A590F5010994FD01FACFFD01FA
:100074003296F7CFFD013496F4CFC3CF2EE3C09A66
:1000840071D122956FD1FD013A96B590A590F501F5
:1000940086D10895C09820EC65D1229563D120E2E1
:1000A400C09A60D122955ED1FD013C96B590A59091
:1000B400F50175D1089520E2C09A54D1229552D108
:1000C400FD013A96B590A590F50169D1C09820EC50
:1000D40049D1229547D12EE3C09A44D1229542D1E9
:1000E400FD013C96B590A590F50159D10895BCE069
:1000F400A0E091CFBCE0AEE08ECFBCE0ACE18BCF12
:10010400BCE0AAE288CFBCE0A8E385CFC09821E098
:1001140029D1229527D1C09822E024D1229522D139
:10012400FCE0E6E43CD144C1C09821E01BD1229517
:1001340019D1C09822E016D1229514D1FCE0EEE446
:100144002ED136C1C09821E00DD122950BD1C09893
:1001540022E008D1229506D1FCE0E4E520D128C1B3
:10016400C09821E0FFD02295FDD0C09822E0FAD0BB
:100174002295F8D0FCE0EEE512D11AC1C09821E036
:10018400F1D02295EFD0C09822E0ECD02295EAD0AD
:10019400FCE0ECE604D10CC110E20FEF0A95F1F794
:1001A4001A95D9F708951FE81A95F1F7089505D01F
:1001B40004D003D002D001D008950F931F930AE016
:1001C40014E607D01A95E9F70A95D1F71F910F9114
:1001D40008950F931F930AE014E607D01A95E9F7E0
:1001E4000A95D1F71F910F9108950F931F930AE079
:1001F40011271A95F1F70A95D9F71F910F910895D0
:1002040008E100930A0006E00093200000E0009358
:10021400200007E6009309000F9300910B0005FFEF
:10022400FCCF20930C000F9108950F9300910B00C5
:1002340007FFFCCF30910C000F91089540E0F5DFEB
:10024400032FF3DF132F0CD0012F4030D1F3F0E054
:10025400E0E6EBDF032FE9DF132F02D011D0FBCF51
:100264001B3C11F4101709F00895403009F002C046
:1002740041E008950BEC019300831F911F9106C088
:100284000193089504B30F6F04BB0895F0E0E0E612
:10029400019111911B3C11F41017C1F305BB012FFF
:1002A400F8CFFCE0E6EB059115911B3C11F4101717
:1002B400C1F305BB012FF8CF0FEF039505BB000079
:1002C4000000FBCF0FEF04BB00270FEF05BB1FEFB0
:1002D4001A95F1F70F37C8F300E005BB1FEF1A9525
:1002E400F1F7D1F7EFCF0FEF04BB002705BB1FEFEA
:1002F4001A95F1F703950F37C8F305BB1FEF1A954D
:10030400F1F70A95D1F7EFCF07B3006F07BB07B337
:10031400076007BBC198C09828E33EDF3DDF3CDFA0
:1003240021D03ADF1FD03FDF1DD028E23CDF1AD0B6
:10033400C09828E217D0229515D0C0982FE012D08B
:10034400229510D0C09821E00DD022950BD0C098F2
:1003540026E008D0229506D0C0982FE003D022953D
:1003640001D0089519DF022F007F18B31F70012BED
:1003740008BBC29A000000000000C29808958A9841
:10038400929A00E40BBF02E005BF7894BCE0A0E0C1
:100394008C988B988D98949A939A959A0895259110
:1003A400C09AE0DF2295DEDF25912030C9F7089559
:0203B400FFCF79
:00000001FF
