:020000020000FC
:100C0000001B005C00B3003000390C460C4E00594C
:100C1000005F0068003000390C4E0C54005C00622C
:100C20000069003000390C540C5E005F0065006AFA
:100C3000003000390C5E0C6C00620059006B003013
:100C400000390C6C0C464D61746C61620000536598
:100C50006E6F0000437561647261646100004469F5
:100C6000656E746520736965727261004D656469B3
:100C70007220696E74656E73696461640000457307
:100C8000706572616E646F2068616E647368616B19
:100C900065004775617264616E646F206D75657380
:100CA000747261730000456E7669616E646F2073C3
:100CB000656E616C00000102030405060708090A5D
:100CC0000102030405060708090A010203040506D8
:100CD0000708090A0102030405060708090A0102B8
:100CE000030405060708090A0102030405060708AC
:100CF000090A0102030405060708090A01020304A0
:100D000005060708090A0102030405060708090A7F
:0A0D10000102030405060708090AA2
:0200000002C03C
:100004002CC00FEF0DBF08E00EBF00C06FD1F2D0BF
:100014008AD0CBD070D100D021E031D163D122E09D
:100024002ED160D1FD0136960CD0FD01389609D051
:1000340000C006B102FF09C003FF09C004FF0AC0E3
:10004400F8CFB590A590F5010994FD01FACFFD0113
:100054003296F7CFFD013496F4CFD3CF2EE3EFD011
:10006400FD013A96B590A590F50148D1089520EC8C
:1000740006D138D120E2E3D0FD013C96B590A5909D
:10008400F5013CD1089520E2DAD0FD013A96B5900D
:10009400A590F50133D120ECF2D024D12EE3CFD0BA
:1000A400FD013C96B590A590F50128D10895BCE0DA
:1000B400A0E0B2CFBCE0AEE0AFCFBCE0ACE1ACCFEF
:1000C400BCE0AAE2A9CFBCE0A8E3A6CFA5CFA4CF09
:1000D400A3CFA2CF05D004D003D002D001D008957D
:1000E4000F931F930AE014E607D01A95E9F70A95CF
:1000F400D1F71F910F9108950F931F930AE014E60F
:1001040007D01A95E9F70A95D1F71F910F91089531
:100114000F931F930AE011271A95F1F70A95D9F75F
:100124001F910F91089508E10093C10006E0009328
:10013400C20000E00093C50007E60093C4000F93DB
:100144000091C00005FFFCCF2093C6000F910895D5
:100154000F930091C00007FFFCCF3091C6000F91B0
:10016400089540E0F5DF032FF3DF132F0CD0012FA8
:100174004030D1F3F1E0E0E0EBDF032FE9DF132FB0
:1001840002D011D0FBCF1B3C11F4101709F00895D5
:10019400403009F002C041E008950BEC0193008364
:1001A4001F911F9106C00193089504B10F6F04B904
:1001B4000895F1E0E0E0019111911B3C11F4101756
:1001C400C1F305B9012FF8CFFCE0E6EB05911591D9
:1001D4001B3C11F41017C1F305B9012FF8CFFCE053
:1001E400E8EE059115911B3C11F41017C1F305B904
:1001F400012FF8CF519A529A539A72DF20E20ED00F
:1002040071D028E23CD06ED02CE039D06BD021E004
:1002140036D068D026E033D065D008950AB1006F97
:100224000AB90BB10F70207F022B0BB95B9A000047
:10023400000000005B980AB10F700AB908952F936B
:100244000AB1006F0AB90BB10170207F022B0BB900
:10025400599A5B9A0000000000005B982F910F7080
:100264002295207F022B0BB9599A5B9A000000005B
:1002740000005B9859980AB10F700AB908952F933A
:100284000AB1006F0AB90BB10170207F022B0BB9C0
:100294005B9A0000000000005B982F910F7022957C
:1002A400207F022B0BB95B9A0000000000005B98D2
:1002B4000AB10F700AB908950AB10F700AB95998B2
:1002C4005A9A5B9A000009B1007F302F5B980000B6
:1002D40000005B9A000009B1007F0295302B5B9807
:1002E4005A980895E9DF3078E9F70895539A5A9AAD
:1002F40001E005BF7894BCE0A0E0089525919FDF5C
:0A03040025912030E1F70895FFCFA6
:00000001FF
