:020000020000FC
:100C0000008100780084003C00480C460C4E0075C2
:100C1000007B0092003C00480C4E0C540078007E93
:100C200000A0003C00480C540C5E007B008100AE2C
:100C3000003C00480C5E0C6C007E007500BC003C63
:100C400000480C6C0C464D61746C61620000536589
:100C50006E6F0000437561647261646100004469F5
:100C6000656E746520736965727261004D656469B3
:100C70007220696E74656E73696461640000496E08
:100C800074656E73696461643A004573706572617E
:100C90006E646F2068616E647368616B6500477590
:100CA000617264616E646F206D75657374726173D7
:100CB0000000456E7669616E646F2073656E616CCD
:100CC0000000000000000000000101020303040511
:100CD000060708090A0C0D0F1012131517191B1D12
:100CE0001F212325272A2C2E313336383B3E404303
:100CF00046494C4F5154575A5D6063676A6D707333
:100D000076797C808386898C8F9295989C9FA2A50A
:100D1000A8ABAEB0B3B6B9BCBFC1C4C7C9CCCED105
:100D2000D3D5D8DADCDEE0E2E4E6E8EAECEDEFF099
:100D3000F2F3F5F6F7F8F9FAFBFCFCFDFEFEFFFF17
:100D4000FFFFFFFFFFFFFFFFFFFEFEFDFCFCFBFAC6
:100D5000F9F8F7F6F5F3F2F0EFEDECEAE8E6E4E2A5
:100D6000E0DEDCDAD8D5D3D1CECCC9C7C4C1BFBC94
:100D7000B9B6B3B0AEABA8A5A29F9C9895928F8C44
:100D8000898683807C797673706D6A6763605D5A4B
:100D90005754514F4C494643403E3B383633312E31
:100DA0002C2A272523211F1D1B1917151312100F7D
:100DB0000D0C0A09080706050403020101000000E2
:100DC000000000000000000001010203030405060A
:100DD0000708090A0C0D0F1012131517191B1D1FF8
:100DE000212325272A2C2E313336383B3E404346DB
:100DF000494C4F5154575A5D6063676A6D70737602
:020E0000797CFB
:0200000002C03C
:1000040038C00FE50DBF08E00EBF00C078D231D272
:10001400C1D17CD201D08CC2C09821E058D22295A3
:1000240056D2C09822E053D2229551D2FD01369681
:1000340014D0FD01389611D001C00895C0982CE069
:1000440046D2229544D2B2D0B1D000B304FF09C045
:1000540003FF09C005FF0AC0F1CFB590A590F501D3
:100064000994FD01FACFFD013296F7CFFD013496D4
:10007400F4CFC7CF2EE3C09A2AD2229528D2FD010D
:100084003A96B590A590F5014AD20895C09820EC0F
:100094001ED222951CD220E2C09A19D2229517D2E0
:1000A400FD013C96B590A590F50139D2089520E262
:1000B400C09A0DD222950BD2FD013A96B590A59027
:1000C400F5012DD2C09820EC02D2229500D22EE365
:1000D400C09AFDD12295FBD1FD013C96B590A59027
:1000E400F5011DD20895BCE0A0E096CFBCE0AEE0DF
:1000F40093CFBCE0ACE190CFBCE0AAE28DCFBCE0F2
:10010400A8E38ACFC09821E0E2D12295E0D1C0983B
:1001140022E0DDD12295DBD1FCE0E6E400D208C286
:10012400C09821E0D4D12295D2D1C09822E0CFD179
:100134002295CDD1FCE0EEE4F2D1FAC1C09821E0E1
:10014400C6D12295C4D1C09822E0C1D12295BFD195
:10015400FCE0E4E5E4D1ECC1C09821E0B8D12295FB
:10016400B6D1C09822E0B3D12295B1D1FCE0EEE53E
:10017400D6D1DEC114C110E20FEF0A95F1F71A953A
:10018400D9F708951FE81A95F1F7089505D004D01A
:1001940003D002D001D008950FEF1FE05FEF5A950E
:1001A400F1F71A95E1F70A95C1F708950F931F9394
:1001B4000AE014E607D01A95E9F70A95D1F71F91DA
:1001C4000F9108950F930AE000000A95E9F70F9143
:1001D400089508E100930A0006E00093200000E07F
:1001E4000093200007E6009309000F9300910B0091
:1001F40005FFFCCF20930C000F9108950F930091FD
:100204000B0007FFFCCF30910C000F91089540E0E4
:10021400C09821E05CD122955AD1C09822E057D1F0
:10022400229555D1F6E0E5E47AD1E8DF032FE6DF45
:10023400132F19D0012F4030D1F3C09821E047D1BA
:10024400229545D1C09822E042D1229540D1F6E0D2
:10025400EFE465D1F0E0E0E6D1DF032FCFDF132F29
:1002640002D011D0FBCF1B3C11F4101709F00895F4
:10027400403009F002C041E008950BEC0193008383
:100284001F911F9106C00193089504B30F6F04BB1F
:100294000895F0E0E0E6019111911B3C11F4101770
:1002A400C1F305BB012FF8CFFCE0E2EC05911591F9
:1002B4001B3C11F41017C1F305BB012FF8CF0FEF4E
:1002C400039505BB00000000FBCF0FEF04BB002724
:1002D4000FEF05BB1FEF1A95F1F70F37C8F300E0D6
:1002E40005BB1FEF1A95F1F7D1F7EFCF0FEF04BB62
:1002F400002705BB1FEF1A95F1F703950F37C8F3D5
:1003040005BB1FEF1A95F1F70A95D1F7EFCF1BD074
:1003140004E0402E0081002329F400E201934A9472
:10032400C9F700814394005D019300814A94D9F791
:1003340035970895ECDF06E0402E4A94019100328F
:10034400E1F3319708957F926F9207E2502E00E116
:10035400402E14D003E0502E08EE402E0FD000E0C3
:10036400502E04E6402E0AD000E0502E0AE0402E23
:1003740005D0608234976F907F900895002775149C
:1003840038F011F4641420F0641875080395F7CF5D
:100394000193089507E806B900E407B90895C098E1
:1003A40021E095D0229593D0C09822E090D0229558
:1003B4008ED0FCE0EEE7B3D0DEDEDDDEDCDEDBDEBD
:1003C400DADED9DED8DED7DED6DED5DED4DED3DE85
:1003D400D2DED1DED0DECFDECEDECDDECCDECBDEB5
:1003E400CADEC9DEC8DEC7DEC6DEC5DEC4DEC3DEE5
:1003F400C2DEC1DEC0DEBFDEBEDEBDDEBCDEBBDE15
:10040400BADEB9DEB8DEB7DEB6DEB5DEB4DEB3DE44
:10041400B2DEB1DEB0DEAFDEAEDEADDEACDEABDE74
:10042400AADEA9DEA8DEA7DEA6DEA5DEA4DEA3DEA4
:10043400A2DEA1DEA0DE9FDE9EDE9DDE9CDE9BDED4
:100444009ADE99DE98DE97DEC09820EC40D02295A3
:100454003ED000E00ABB00E407B9369A3699FECFD5
:1004640064B075B0F0E0E6E665DFF0E0E6E63CD0C7
:10047400A3CF07B3006F07BB07B3076007BBC198DF
:10048400C09828E378DE77DE76DE21D074DE1FD0D4
:1004940079DE1DD028E276DE1AD0C09828E217D083
:1004A400229515D0C0982FE012D0229510D0C09874
:1004B40021E00DD022950BD0C09826E008D02295DB
:1004C40006D0C0982FE003D0229501D0089553DEC2
:1004D400022F007F18B31F70012B08BBC29A0000C3
:1004E40000000000C298089555E02191C09AEFDF02
:1004F4002295EDDF21915A955030C1F708958A98DD
:10050400929A00E40BBF02E005BF7894BCE0A0E03F
:100514008C988B988D98949A939A959A089525918E
:10052400C09AD5DF2295D3DF25912030C9F70895ED
:02053400FFCFF7
:00000001FF
