:100000000C94B1000C94C6000C94C6000C94C6006D
:100010000C94C6000C94C6000C94C6000C94C60048
:100020000C94C6000C94C6000C94C6000C94C60038
:100030000C94C6000C94C6000C94C6000C94C60028
:100040000C94C6000C94C6000C94C6000C94C60018
:100050000C94C6000C94C6000C94C6000C94C60008
:100060000C94C6000C94C60000407A10F35A00A00D
:10007000724E18090010A5D4E80000E87648170071
:1000800000E40B54020000CA9A3B000000E1F505B1
:10009000000080969800000040420F000000A086FB
:1000A00001000000102700000000E803000000002D
:1000B0006400000000000A000000000001000000D1
:1000C00000002C76D888DC674F0823DFC1DFAE59EB
:1000D000E1B1B796E5E3E453C63AE651997696E87E
:1000E000E6C28426EB898C9B62ED407C6FFCEFBC02
:1000F0009C9F40F2BAA56FA5F490055A2AF75C932D
:100100006B6CF9676DC11BFCE0E40D47FEF520E662
:10011000B500D0ED902E0300943577050080841E45
:10012000080000204E0A000000C80C333333330FA0
:10013000986E12831141EF8D2114893BE65516CF3D
:10014000FEE6DB18D1844B381BF77C1D901DA4BB49
:10015000E424203284725E228100C9F124ECA1E5FE
:100160003D2711241FBECFEFD8E0DEBFCDBF11E089
:10017000A0E0B1E0E8E6FBE002C005900D92A831F6
:10018000B107D9F70E94F3000C94B2050C9400005B
:1001900085B95E985D9A83ED90E30197F1F700C011
:1001A00000008BB1807C8BB915B8089585B95E9A33
:1001B0005D9A83ED90E30197F1F700C000008BB1E9
:1001C000807C8BB915B80895CF93DF93EC018881BB
:1001D000882331F021960E94D60089918111FBCFAE
:1001E000DF91CF910895CF93DF93CDB7DEB72797F7
:1001F0000FB6F894DEBF0FBECDBF8FEF84B98AB9BA
:1002000083ED90E30197F1F700C0000017B8ECE729
:10021000F0E0808180648083EAE7F0E08081816A99
:10022000808381E00E94C800E3EDF0E33197F1F7AD
:1002300000C0000088E30E94C80083ED90E30197AE
:10024000F1F700C000008FE00E94C800EAE7F0E08C
:1002500080818064808380E091E00E94E40080ECF3
:100260000E94C8008AE091E00E94E40088EC0E94AD
:10027000C8000F2EF8E7AF2EB12CF02DF5016081EC
:10028000718180E090E00E944A022DEC3CEC4CEC45
:1002900051E40E94E2016B017C0120E030E040EE7D
:1002A00050E40E94D8022B013C01A701960160E0B6
:1002B00070E080EA90E40E947D019B01AC01C301E3
:1002C000B2010E94E2018E010F5F1F4F21E030E07A
:1002D00044E050E00E943B03C8010E94E40083E137
:1002E00091E00E94E40083ED90E30197F1F700C0F4
:1002F000000088EC0E94C800C1CF5058BB27AA2735
:100300000ED01CC10DD130F012D120F031F49F3F3E
:1003100011F41EF402C10EF4E095E7FBF8C0E92FDA
:100320001ED180F3BA17620773078407950718F088
:1003300071F49EF536C10EF4E0950B2EBA2FA02D68
:100340000B01B90190010C01CA01A0011124FF2782
:10035000591B99F0593F50F4503E68F11A16F0407D
:10036000A22F232F342F4427585FF3CF469537957C
:100370002795A795F0405395C9F77EF41F16BA0B41
:10038000620B730B840BBAF09150A1F0FF0FBB1FEF
:10039000661F771F881FC2F70EC0BA0F621F731F38
:1003A000841F48F4879577956795B795F7959E3F95
:1003B00008F0B3CF9395880F08F09927EE0F979523
:1003C000879508950CD0BAC0B2D040F0A9D030F0D3
:1003D00021F45F3F19F09BC05111E4C09EC0BFD013
:1003E00098F39923C9F35523B1F3951B550BBB27FC
:1003F000AA2762177307840738F09F5F5F4F220FA9
:10040000331F441FAA1FA9F333D00E2E3AF0E0E8A1
:1004100030D091505040E695001CCAF729D0FE2FED
:1004200027D0660F771F881FBB1F2617370748077F
:10043000AB07B0E809F0BB0B802DBF01FF27935835
:100440005F4F2AF09E3F510568F061C0ABC05F3F2F
:10045000ECF3983EDCF3869577956795B795F7951D
:100460009F5FC9F7880F911D9695879597F9089515
:10047000E1E0660F771F881FBB1F621773078407B1
:10048000BA0720F0621B730B840BBA0BEE1F88F7C0
:10049000E0950895E89409C097FB3EF49095809507
:1004A000709561957F4F8F4F9F4F9923A9F0F92F3A
:1004B00096E9BB279395F695879577956795B795B8
:1004C000F111F8CFFAF4BB0F11F460FF1BC06F5F9E
:1004D0007F4F8F4F9F4F16C0882311F096E911C0B0
:1004E000772321F09EE8872F762F05C0662371F0D1
:1004F00096E8862F70E060E02AF09A95660F771FE5
:10050000881FDAF7880F9695879597F9089597F9D8
:100510009F6780E870E060E008959FEF80EC0895A9
:1005200000240A94161617061806090608950024D2
:100530000A9412161306140605060895092E03944C
:10054000000C11F4882352F0BB0F40F4BF2B11F4C0
:1005500060FF04C06F5F7F4F8F4F9F4F089557FD1F
:100560009058440F551F59F05F3F71F04795880F21
:1005700097FB991F61F09F3F79F0879508951216B8
:1005800013061406551FF2CF4695F1DF08C0161664
:1005900017061806991FF1CF869571056105089415
:1005A0000895E894BB2766277727CB0197F908952C
:1005B0000BD0C4CFB5DF28F0BADF18F0952309F0CF
:1005C000A6CFABCF1124EECFCADFA0F3959FD1F316
:1005D000950F50E0551F629FF001729FBB27F00DF1
:1005E000B11D639FAA27F00DB11DAA1F649F662746
:1005F000B00DA11D661F829F2227B00DA11D621F95
:10060000739FB00DA11D621F839FA00D611D221F4E
:10061000749F3327A00D611D231F849F600D211D32
:10062000822F762F6A2F11249F5750408AF0E1F0D5
:1006300088234AF0EE0FFF1FBB1F661F771F881F1E
:1006400091505040A9F79E3F510570F060CFAACF5E
:100650005F3FECF3983EDCF3869577956795B79509
:10066000F795E7959F5FC1F7FE2B880F911D969533
:10067000879597F90895EF920F931F93CF93DF9388
:10068000E80147FF02C034E101C034E0E42FFF2756
:10069000E7FDF095F7FF03C0F195E195F109E32E31
:1006A000022F2E2FAE010E945C03CE01DF91CF916D
:1006B0001F910F91EF9008956F927F929F92AF924A
:1006C000BF92CF92DF92EF92FF920F931F93CF933F
:1006D000DF93CDB7DEB729970FB6F894DEBF0FBE14
:1006E000CDBF6A01B22E102F0C3320F4FF24F394F7
:1006F000F00E02C04CE3F42E0F2D27E0AE014F5F49
:100700005F4F0E94DA047981272F2970213031F060
:10071000E1FC06C0E0FC06C060E005C06DE203C07D
:100720006BE201C060E2AE2DA07173FF36C066239C
:1007300011F084E001C083E08B1510F4B81A01C0F9
:10074000B12CA1110BC0F6018B2D90E2882319F07A
:1007500091938150FBCFCB0CD11CB12C662331F08F
:10076000F601608396012F5F3F4F6901C601039632
:10077000E2FE05C02EE4F601208331E404C02EE63B
:10078000F601208331E631832283FC012B2D30E2F8
:100790002223F1F131932150FBCF72FF40C0662339
:1007A00011F084E001C083E08B1510F4B81A01C089
:1007B000B12CA1110BC0F6018B2D90E2882319F00A
:1007C00091938150FBCFCB0CD11CB12C662331F01F
:1007D000F601608396012F5F3F4F6901C6010396C2
:1007E000E2FE07C029E4F60120832EE4218326E4FB
:1007F00006C029E6F60120832EE6218326E6228321
:10080000FC012B2D30E2222319F031932150FBCF34
:10081000FC01EB0DF11D10828EEF9FEFB7C0B1E030
:10082000611101C0B0E04B2F50E01816190624F4F6
:100830009C012F5F3F4F02C021E030E0240F351FA5
:10084000112329F0412F50E04F5F5F4F02C040E07D
:1008500050E0420F531F2B2D30E04217530714F482
:10086000B41A01C0B12C2E2D287159F4F6012B2D8C
:1008700030E2222319F031932150FBCFCB0CD11C55
:10088000B12CBB2331F0F601608396012F5F3F4FFF
:100890006901A1110BC0F6012B2D30E3222319F0C1
:1008A00031932150FBCFCB0CD11CB12CF80E0A8117
:1008B000372F3071A32E74FF03C0013309F4FA946B
:1008C0001F142CF42F2D293018F028E001C021E04E
:1008D000682F392F97FF02C060E030E0462F532F7A
:1008E000612C712C3EE2932EBC01621B71099B01AD
:1008F000DC01A41BB50BE1E0F0E0EC0FFD1FAE0F37
:10090000BF1FE12EF12CF194E194F1084F3FFFEF6E
:100910005F0731F4F6019082B6016F5F7F4F6B0184
:10092000841795074CF02417350734F4BD01660D84
:10093000771DFB01118101C010E341505109FFEF08
:100940006F1A7F0AB6016F5F7F4F4E155F0524F067
:10095000F60110836B01DACF4817590739F40633D3
:1009600020F4053319F4A11001C011E3F60110833E
:10097000FB018B2D90E2882319F091938150FBCFDE
:10098000FB01EB0DF11D108280E090E029960FB67F
:10099000F894DEBF0FBECDBFDF91CF911F910F91B5
:1009A000FF90EF90DF90CF90BF90AF909F907F909F
:1009B0006F900895283008F027E03327DA01990F67
:1009C000311D87FD916000966105710539F4326033
:1009D0002E5F3D9330E32A95E1F708959F3F30F075
:1009E00080387105610509F03C5F3C5F3D939130B3
:1009F00008F08068911DDF93CF931F930F93FF92B0
:100A0000EF92192F987F9695E92F96959695E90F75
:100A1000FF27EE53FF4F99273327EE24FF24A7012A
:100A2000E70105900894079428F4360FE71EF81E96
:100A3000491F511D660F771F881F991F0694A1F744
:100A40000590079428F4E70EF81E491F561FC11D94
:100A5000770F881F991F661F0694A1F705900794CA
:100A600028F4F80E491F561FC71FD11D880F991F64
:100A7000661F771F0694A1F70590079420F4490F8D
:100A8000561FC71FD81F990F661F771F881F069410
:100A9000A9F784911095177041F0D695C795579591
:100AA0004795F794E7941A95C1F7E8E6F0E0689463
:100AB0001590159135916591959105907FE273950B
:100AC000E118F10A430B560BC90BD009C0F7E10C32
:100AD000F11E431F561FC91FD01D7EF4703311F441
:100AE0008A95E6CFE894015030F0080F0AF4002709
:100AF000021708F4202F2395022F7A3328F079E388
:100B00007D932A95E9F710C07D932A9589F606947E
:100B100097956795379517951794E118F10A430B48
:100B2000560BC90BD00998F023957E9173957A33B3
:100B300008F070E37C932013B8F77E9170617D9389
:100B400030F0839571E37D9370E32A95E1F71124EA
:100B5000EF90FF900F911F91CF91DF91992787FD23
:080B600090950895F894FFCF71
:100B6800456E74726164612020004C4452207265A5
:080B7800733D004B202020001A
:00000001FF
