:020000020000FC
:1000000058E05EBF5FEF5DBF5FEF5AB954B92A9801
:100010000E94410008E30E9422000E9441000EE07D
:100020000E94220001E00E9422000E94410006E09E
:100030000E94410008E40E942C0009E40E942C0068
:100040000C9420000BB9289829982A9A0E9436000F
:100050002A980E94390008950BB9289A29982A9A5B
:100060000E9436002A980E9439000895000000007E
:1000700008951F931CE30E9436001A95E1F71F9123
:1000800008951F9314E10E9439001A95E1F71F911A
:020090000895D1
:00000001FF
