:020000020000FC
:100C0000001700570063002B00340C460C4E0054B4
:100C1000005A0064002B00340C4E0C540057005D49
:100C20000065002B00340C540C5E005A0060006616
:100C3000002B00340C5E0C6C005D00540067002B30
:100C400000340C6C0C464D61746C6162000053659D
:100C50006E6F0000437561647261646100004469F5
:100C6000656E746520736965727261004D656469B3
:100C70007220696E74656E73696461640000457307
:100C8000706572616E646F2068616E647368616B19
:100C900065004775617264616E646F206D75657380
:100CA000747261730000456E7669616E646F2073C3
:060CB000656E616C00009E
:1000000000C00FEF0DBF08E00EBFC8D08AD0C2D02D
:1000100041D100D021E007D139D122E004D136D13D
:10002000FD0136960CD0FD01389609D000C006B10E
:1000300002FF09C003FF09C004FF0AC0F8CFB59052
:10004000A590F5010994FD01FACFFD013296F7CF95
:10005000FD013496F4CF2EE3C6D0FD013A96B5905B
:10006000A590F5011AD1089520ECDDD00FD120E242
:10007000BAD0FD013C96B590A590F5010ED108953A
:1000800020E2B1D0FD013A96B590A590F50105D1D9
:1000900020ECC9D0FBD02EE3A6D0FD013C96B59054
:1000A000A590F501FAD00895BCE0A0E0B3CFBCE084
:1000B000AEE0B0CFBCE0ACE1ADCFBCE0AAE2AACFED
:1000C000BCE0A8E3A7CFA6CFA5CFA4CFA3CFA2CF54
:1000D00005D004D003D002D001D008950F931F9310
:1000E0000AE014E607D01A95E9F70A95D1F71F91AF
:1000F0000F9108950F931F930AE014E607D01A9505
:10010000E9F70A95D1F71F910F9108950F931F9367
:100110000AE011271A95F1F70A95D9F71F910F9167
:10012000089508E10093C10006E00093C20000E0DA
:100130000093C50007E60093C4000F930091C00030
:1001400005FFFCCF2093C6000F9108950F930091F7
:10015000C00007FFFCCF3091C6000F91089540E02A
:10016000F5DF032FF3DF132F0AD0012F4030D1F337
:10017000EDDF032FEBDF132F02D00CD0FBCF1B3CA6
:1001800011F4101709F00895403009F002C041E061
:10019000089504C004B10F6F04B90895519A529A9A
:1001A000539A9CDF20E20ED071D028E23CD06ED072
:1001B0002CE039D06BD021E036D068D026E033D0A7
:1001C00065D008950AB1006F0AB90BB10F70207F96
:1001D000022B0BB95B9A0000000000005B980AB18B
:1001E0000F700AB908952F930AB1006F0AB90BB1C5
:1001F0000170207F022B0BB9599A5B9A0000000016
:1002000000005B982F910F702295207F022B0BB975
:10021000599A5B9A0000000000005B9859980AB157
:100220000F700AB908952F930AB1006F0AB90BB184
:100230000170207F022B0BB95B9A000000000000C8
:100240005B982F910F702295207F022B0BB95B9A40
:100250000000000000005B980AB10F700AB9089511
:100260000AB10F700AB959985A9A5B9A000009B1FD
:10027000007F302F5B98000000005B9A000009B1FE
:10028000007F0295302B5B985A980895E9DF30780B
:10029000E9F70895BCE0A0E008952591A4DF259139
:0802A0002030E1F70895FFCFC3
:00000001FF
